:10000000008000206D810000A3810000A581000018
:10001000A7810000A9810000AB810000A181000040
:10002000A1810000A1810000A1810000AD8100003C
:10003000AF810000A1810000B1810000150B00001C
:10004000A9620000210A00002D510000BB810000C0
:10005000BD81000009390000C1810000050A0000CF
:10006000C5810000C7810000C9810000910A00001D
:10007000CD810000CF810000D1810000D38100003C
:10008000D5810000D7810000D9810000DB8100000C
:10009000DD810000DF810000E1810000E3810000DC
:1000A000E5810000E7810000E9810000EB810000AC
:1000B000ED810000EF81000031760000F381000047
:1000C000F5810000F7810000F9810000FB8100004C
:1000D000FD810000FF81000001820000038200001A
:1000E0000000000000000000000000000000000010
:1000F0000000000000000000000000000000000000
:1001000010B5054C237833B9044810B10448AFF357
:1001100000800121217010BD90010020000000002E
:100120007CF1000008B5064B1BB106480649AFF349
:1001300000800648016811B1054A02B1904708BD28
:10014000000000007CF100009401002090010020DC
:1001500000000000154B002B08BF134B9D46A3F574
:10016000803A00218B460F461348144A121A0EF0AB
:100170002AF90F4B002B00D098470E4B002B00D0D4
:1001800098470020002104460D4600200C4900221B
:1001900000230EF0AFF80EF0E7F82046294600F0F5
:1001A00025F80EF0B5F800BF000008000080002020
:1001B0000000000000000000900100207C230020CF
:1001C0003DE3000040F2010240F20003C2F20002EF
:1001D000C2F20003012111701970704740F2B3138D
:1001E000C2F2000301221A70704700BF2DE9F04FE0
:1001F000B94BBA4EDFF808830FCB93B00EAC40F288
:10020000C84784E80F00C2F200074FF452404FF095
:10021000050C4FF003093222012160250594C0F23C
:1002200002000024C7F804C0C6F804C0757034701A
:1002300087F8029086F80290ADF81A20CDF808C031
:1002400005F026FC0120064603460921022206F09D
:100250005DF90921224633463046009606F00EF934
:100260004FF4614A0A2102223046334606F04EF925
:10027000CEF2000A0A21224630463346009606F0A6
:10028000FDF84FF0020B04214FF400604FF4C0471B
:10029000C4F20007CAF880010A46CAF800002346E3
:1002A0004846CAF880B1CAF800B006F02FF94FF0FE
:1002B000100EC7F880E00825584649460A22234612
:1002C00006F024F9584621460A222346BD6506F069
:1002D0001DF9DDF808C0BE65614648460422334674
:1002E00006F014F90420024659462346029006F00F
:1002F0000DF9DDF808B023465A4658464946C7F876
:10030000A4B006F003F94FF4005B4FEA0941C7F8C7
:10031000A4501F23C4F2000B41F4007031468DF845
:1003200027308DF824408DF825408DF826408DF833
:1003300028408DF829408DF82C408DF82D408DF8FF
:100340002E408DF82F408DF830408DF831408DF8DB
:1003500032408DF833408DF8344005F099FB584613
:1003600009A905F01BF8DDF8089009220BA95846E9
:100370008DF830208DF82D9005F02CF841F67C702A
:10038000CBF83400DBF8145080213543CBF81450FF
:10039000CAF88011CAF8001006F00AFF504806F0AB
:1003A0007FFE504806F07CFE204600F0F9FB88F8FE
:1003B00000403C6CA10540F113814B4E04964FF474
:1003C000C043C4F20003DFF83C911A6C520502D41A
:1003D000012089F8000001210A46022005F034FFBF
:1003E0000421512005F07EFD049D2978002900F0AC
:1003F000EA800EA807F004FA0EA80DF02DFC4FF4C9
:1004000024408221C4F2000001F0B2FC00210A461F
:1004100007463248354C8B4609F042FB40F2B21396
:100420008246204640F2C844C2F20003C2F20004F1
:1004300001265A2559465A4683F800B06570267041
:1004400009F02EFB5845C0F2A9804FF42440C4F2B5
:100450000000802101F08CFC002800F0928099F8C7
:100460000010DFF8809000294ED140F2B215204EE6
:10047000204C0396C2F2000502232B70012000F0ED
:10048000BBFB0EA80DF0E8FB0EA807F0B9F940F28F
:10049000B2150BA800F0F2FFC2F20005049E287806
:1004A000154A3378154D0BA900F0FEFDBAF1000F87
:1004B00002DB002F40F09A8000F0E0FD01F038FFF1
:1004C00020B1049C207805F033FFFEE70498007803
:1004D0000028FAD1F7E700BF28EC0000BC04002098
:1004E000C4040020B8040020AE010020C80400208D
:1004F000B3010020B101002038EC0000B20100205F
:1005000000000020AF010020CDF800B08E4CD9F8DB
:1005100000008E4B03943146FA2206F09BFE8C4C71
:10052000DDF810B0227882B9039B197831BB01F055
:10053000FFFEF0B99BF80050FA206DB306F0E8FD1D
:10054000039A16702278002AEED0814840F2B21148
:100550000678C2F200010223052E0B7002D17D4AFB
:1005600003251570D9F8000007F022F8002020704C
:1005700084E79BF8000005F0DBFED3E700F012FBF8
:10058000D5E740F2B210704ADFF8E4910392C2F26C
:1005900000006F4C067074E72846ECE760262046A2
:1005A00059465A46667009F07BFA584510DB40F20E
:1005B000B210C2F20000644BDFF8B491039304243C
:1005C0000470634C5DE75120082105F0C9FA10E77B
:1005D0005D4984F800B0DFF8989103915C4C50E7D6
:1005E0005D4F049701F0EEFB3E70E8E640F2C44731
:1005F000C2F200070026594B3868009601214FF4DB
:100600007A7206F027FE544ADFF868A15448297828
:10061000127801238AF8003000F032FF287828B1E0
:1006200031465048324609F03BFA2878003018BF6E
:10063000012001F0B7FA4FF400514B4FC4F2000112
:10064000002540F2D24641F22E6201233D7007960A
:1006500008924B60387858B94FF46D41CEF20001E2
:100660000D6925F004060E6130BF3A78002AF7D0F4
:100670004FF40055C4F200054FF42440822108AB2A
:1006800007AAC4F200006E6A01F0EAFA0DF11A003E
:1006900001F02EFA40F2AC10C2F2000040F65333E3
:1006A0009E4201788CBF00260126B142304606D01A
:1006B00000F076FA40F2AC12C2F200021670012588
:1006C0000320052102222B4605F020FF03202B46A4
:1006D00000950521002205F0D1FE244E20783570CA
:1006E0002B46059500286AD040F2B111C2F20001F4
:1006F0000A78012A63D03BB940F2B213C2F2000378
:100700001878002800F072814FF0010B0020594644
:10071000024686F800B000F083FF00210A46114827
:1007200009F0BEF998F80010002940F0F8809AF816
:100730000030B3B32078821E032A00F2BC80DFE8C9
:1007400002F0B6BDB21B00BFB3010020DD01000006
:10075000B1010020B2010020AE010020C50100005F
:10076000C8040020BC040020B0010020AD0100201E
:10077000B804002001000020BDF81A0000F0B4FD0C
:1007800040F2C441C2F200014FF0000C0868994BDE
:10079000CDF800C001214FF47A728AF800C006F04B
:1007A00059FD01F0C5FD002840F09180049B1878A8
:1007B000002800F08C8020783378002894D14BB347
:1007C00040F2B215C2F200052878002800F0FD8042
:1007D000002005460121024600F022FF86483570C0
:1007E00029462A4609F05CF92078002879D101468B
:1007F000024600F013FAD9F8000006F0D9FE0022F4
:10080000D9F800007D4B0092012141F2707206F090
:1008100021FD012598F8001041B140F20000C2F21C
:1008200000000023037001258AF80030227800219F
:10083000531E58422A46584100F0F2FE40F2B415C9
:10084000C2F200052870002845D103990A78CAB180
:1008500040F2B315C2F2000540F2B111C2F200013C
:1008600028700978002942D1012200F0D7F9002828
:1008700043D1D9F80030009001211846FA225F4B8D
:1008800006F0E8FC01F054FDE0B9049A1178C9B112
:100890004FF46D45CEF200052B6923F004022A6166
:1008A00030BF054687E7089800F082FA68E70798A6
:1008B00000F066FC64E700F0E1FB61E7089800F0F7
:1008C0002FFB5DE7012005F033FD002573E70120D4
:1008D00005F02EFD6FE700F08FFE0028D8D0002530
:1008E00069E7284629462A4600F0F8F983E70146D9
:1008F000012200F0F3F90028BBD00025D9F8000050
:100900003E4B0095012141F2707206F0A3FC207865
:1009100000285DD10146024600F080F9B2E74FF4AD
:100920000053C4F20003002240F2D24041F22E6193
:100930003A7007900891C3F804B03B785BB94FF464
:100940006D40CEF20000026922F00401016130BF67
:100950003B78002BF7D04FF4005EC4F2000E4FF44A
:100960002440822107AA08ABC4F20000DEF824B0BC
:1009700001F076F90DF11A0001F0BAF840F2AC106E
:10098000C2F2000040F653339B4502788CBF00232F
:1009900001239A42184605D0029300F001F9184944
:1009A000029B0B70059A002088F80000B2B940F64F
:1009B00054318B458CBF4FF0000B4FF0010B1046AC
:1009C00000F0F0F9CDF814B0B1E601F0D9F8FFE687
:1009D000284629462A4600F081F953E740F654306C
:1009E00083458CBF002001208346E9E7012001F008
:1009F000C7F889E6C5010000C8040020DD01000039
:100A0000AC0100204FF40052C4F2000240F2B013D7
:100A10009169C2F20003012011621870704700BF93
:100A20004FF4C042C4F20002154B4FF48061C2F88B
:100A30001C111878052813D01A78511CC8B21870E8
:100A40001978012911D01B78012B02D00C4A11789A
:100A500011B90C4B012018700B4901220A70704724
:100A600000221A7019780129EDD108480278002A6D
:100A7000E9D0032AE7D0024802210170E3E700BF72
:100A8000B1010020AD01002001000020B2010020D2
:100A90004FF4C043C4F2000310B5D3F81441A305CA
:100AA00015D518480278EAB101784B1EDAB2027007
:100AB0000378012B1BD00078012802D011490B7854
:100AC00013B9114801220270104B01211970A006C0
:100AD00001D500F0A9FF4FF4C042C4F20002C2F8F1
:100AE0001C4110BD052101700378012BE3D1084A98
:100AF00011780029DFD00329DDD0024A00231370CA
:100B0000D9E700BFB1010020AD01002001000020A5
:100B1000B201002000F0A2BF10B5017801F07F0300
:100B2000212B06D14278212A0DD0222A04D0202A56
:100B30001ED06FF0020010BD81880029F9D1C08855
:100B40000028F6D110BD4388002BF2D18488002CF8
:100B5000EFD1C288072AECD101F08000C1B2002990
:100B6000E7D020460D49234601F000FC204610BD89
:100B70004388002BDDD18288002ADAD1C288072A77
:100B8000D7D101F08000C4B2002CD2D12046034955
:100B9000234601F0EBFA204610BD00BF0400002000
:100BA00006F094BF30B583B006F09CFE0F4B18786A
:100BB000C0B9042006F044FF0D4B1A68232A01D166
:100BC00000221A600B49541C891868460722002528
:100BD0008DF807501C600DF0EDFB684607F0E8F952
:100BE00003B030BD012006F02BFFE5E7C401002073
:100BF000B801002070ED00004EF6B0524EF698534A
:100C0000C0F20002C0F20003034900280CBF1046E6
:100C100018460860704700BF0C00002070B582B015
:100C200005460E46144606F05DFE264B1878002851
:100C300027D1042006F004FF0CB923490C60234B94
:100C40001A680020032A8DF807001ED0501E186075
:100C500056B9002D2FD0012106F028FFBCB91C4841
:100C600007F0A6F901200AE0012106F01FFF74B980
:100C7000184807F09DF9304606F086FF012002B0C3
:100C800070BD012006F0DCFED6E70420DFE70E4C45
:100C9000114923680A686846D11807220DF08AFBBB
:100CA000684607F085F92068431C10282360D4BFEC
:100CB00000200120E3E7002CE9D1064807F078F98D
:100CC0000120DCE7C4010020BC010020100000204E
:100CD000C8ED0000D0ED00000C00002070B582B01F
:100CE00006460C46154606F0FDFD284B18780028F0
:100CF00028D1042006F0A4FE0DB925490D60254B2E
:100D00001A680020032A8DF807001FD0501E1860B3
:100D10003CB9EEB905BB204807F04AF9012002B002
:100D200070BD012106F0C2FEB5B90EB1312C27DD30
:100D3000194807F03DF9322CF0DD204606F024FF7B
:100D40000120ECE7012006F07BFED5E70420DEE77A
:100D5000012106F0ABFE9DB10D4C104923680A68D5
:100D60006846D11807220DF025FB684607F020F9E8
:100D70002068431C10282360D4BF00200120CEE748
:100D8000074807F015F90120C9E700BFC40100209A
:100D9000C001002014000020D8ED00000C0000204D
:100DA000C8ED000040F2C413C2F20003187070478F
:100DB000F0B585B0044606F095FD574B187800282D
:100DC00040F08880042006F03BFE46F2676104EBA9
:100DD000C402C6F26661D61781FB0215C6EB650731
:100DE00017F5FA407AD420254DF68364C4F21B34FB
:100DF00084FB003144F24026C317C3EBA147C0F285
:100E00000F064BF2895206FB1701C1F2F84282FB32
:100E10000146CC17C4EB66373037FAB2302A8DF86A
:100E200000508DF801205CD048F2A066C0F20106A7
:100E300090FBF6F106FB110442F2107794FBF7F2F7
:100E400030328DF802200625052604274FF0030EC8
:100E500048F6AD31C6F6DB0144F6D35281FB00C43F
:100E6000C1F2620282FB00C1C3EB243442F2107C67
:100E7000C3EBA1130CFB140448F21F514FF47A7C0E
:100E80000CFB1300C5F2EB1182FB043281FB00C3A3
:100E9000E41704A98E44C017C4EBA212CF198E190F
:100EA0004D193032C0EB63130EF8102C3033002490
:100EB0002E2207F8102C684606F8103C174905F852
:100EC000104C0DF0ADFA68468DF8084007F070F848
:100ED00005B0F0BD012006F0B3FD76E740422D25B8
:100EE00082E748F2A065C0F2010590FBF5F105FB31
:100EF000110642F2107496FBF4F73037FAB2302A3A
:100F00008DF8012002D120258DF8015005250426F9
:100F100003274FF0020E9BE7C4010020E0ED000024
:100F2000F0B585B0044606F0DDFC524B1878002879
:100F30007CD1042006F084FD002C7CDB20254DF6BE
:100F40008361C4F21B3181FB0402E31744F24026A3
:100F5000C3EBA247C0F20F064BF2895006FB1741C4
:100F6000C1F2F84080FB0102CE17C6EB6237303782
:100F7000F8B230288DF800508DF801005ED048F2AC
:100F8000A062C0F2010294FBF2F102FB114642F2B0
:100F9000107796FBF7F030308DF802000626052713
:100FA0004FF0040E4FF0030C48F6AD35C6F6DB05E6
:100FB00044F6D35285FB0410C1F2620282FB045155
:100FC000C3EB203042F21075C3EBA11305FB1040B8
:100FD00048F21F514FF47A7505FB1344C5F2EB112B
:100FE00082FB003281FB045104ABC017E5179C441F
:100FF0009E44DF19C5EB61149E19C0EBA21230327A
:1010000000252E2330340CF8102C68460EF8103CC6
:10101000194907F8104C06F8105C0DF001FA684603
:101020008DF8085006F0C4FF05B0F0BD012006F0B1
:1010300007FD002C82DA64422D2580E748F2A06586
:10104000C0F2010594FBF5F105FB114242F2107666
:1010500092FBF6F73037F8B230288DF8010002D154
:1010600020258DF80150052604274FF0030E4FF080
:10107000020C99E7C4010020E4ED000008B506F079
:1010800031FC074B187838B9042006F0D9FC054824
:10109000BDE8084006F08CBF012006F0D1FCF6E761
:1010A000C4010020E8ED0000F8B504461F460E46D6
:1010B000154606F017FC294B1878002839D1042072
:1010C00006F0BEFC002F30D0254806F071FF4FF42B
:1010D0007A7006F01DF8012C33D0022C35D0032C89
:1010E00037D0042C29D04FF47A7006F011F81D483F
:1010F00006F05EFF4FF47A7006F00AF8304606F00C
:1011000057FF4FF47A7006F003F8174806F050FFC7
:101110004FF47A7005F0FCFF284606F049FF4FF4C3
:101120007A70BDE8F84005F0F3BF104806F040FFC4
:10113000CDE7012006F084FCC4E70D4806F038FF37
:10114000D1E70C4806F034FFCDE70B4806F030FF3E
:10115000C9E70A4806F02CFFC5E700BFC40100201C
:10116000F0ED000020EE000028EE0000F8ED000099
:1011700018EE000000EE000008EE000010EE000087
:10118000F0B589B0044606F0ADFB564B1878002840
:1011900040F08580042006F053FC522148220025AF
:1011A000201E8DF800108DF801208DF802507ADB9A
:1011B00020264DF68367C4F21B3787FB003144F2CB
:1011C0004024C317C3EBA145C0F20F044BF2895270
:1011D00004FB1507C1F2F84282FB0745F917C1EB82
:1011E00065343034E2B2302A8DF810608DF8112069
:1011F0005CD048F2A067C0F2010790FBF7F507FB4F
:10120000150442F2107194FBF1F230328DF8122085
:101210000625052604274FF0030E48F6AD3444F6A4
:10122000D352C6F6DB0484FB00C4C1F2620282FB27
:1012300000C1C3EB243442F2107CC3EBA1130CFBBE
:10124000140448F21F514FF47A7C0CFB1300C5F2D2
:10125000EB1182FB043281FB00C3E41708A98E4422
:10126000C017C4EBA212CF198E194D193032C0EB42
:1012700063130EF8102C303300242E2207F8102CA4
:10128000684606F8103C04A905F8104C0DF0C8F8A3
:1012900068468DF8084006F08BFE09B0F0BD0120CD
:1012A00006F0CEFB79E740422D2682E748F2A066A1
:1012B000C0F2010690FBF6F706FB170542F210712B
:1012C00095FBF1F43034E2B2302A8DF8112002D1CE
:1012D00020268DF811600525042603274FF0020E05
:1012E0009BE700BFC401002010B584B0044606F09F
:1012F000F9FA1A4B187820BB042006F0A1FB45F23E
:101300005561C2F23A010A2C009111D84FF0200326
:101310008DF8043019D030348DF805408DF8063042
:10132000002268468DF8082006F042FE04B010BD89
:1013300031212B238DF804108DF805108DF806301F
:10134000EEE7012006F07CFBD9E7312230208DF852
:1013500004208DF805008DF80630E1E7C401002077
:101360004FF4C043C4F2000308220421DA65C3F835
:10137000A010C3F8A020704738B50C4661B13849B9
:10138000384BB1F90020197869B9042811D8DFE881
:1013900000F02D2D43220E00334BB3F90020314BCA
:1013A00019780029F1D0BDE83840FFF767BE002A60
:1013B00044D000203CB92C4AB2F900102246BDE8C6
:1013C0003840FFF72BBC2649B1F900100022BDE8D8
:1013D0003840FFF783BCFFF7C3FF2448244A254960
:1013E00000230370137018460B60E3E74FF4C0430B
:1013F000C4F2000301259D6508210425C3F8A4500B
:10140000C3F8A4109965194B194900221A70194B99
:101410000A7010461A60CDE74FF4C042C4F20002D1
:1014200001230421D365C2F8A0100821C2F8A0103E
:10143000114A0F49137018460B70BBE74FF4C043B5
:10144000C4F2000301220425DA65C3F8A0500A4D56
:101450000821C3F8A01010462A709965AAE700BFBA
:10146000E6010020E4010020E0010020E501002069
:10147000C5010020CC010020E20100200BF09ABF42
:101480002DE9F0418046202088B0C0F204000E46CD
:1014900004F07CF848F21F53C5F2EB13A3FB0020C5
:1014A00041094D1EB5F1807F00D3FEE74EF21007D3
:1014B000CEF200074FF46D42CEF200020024E0238A
:1014C0007D604FF4E440072582F82330C0F202002B
:1014D000BC6001213D6004F0DBFA4FF400654FF47D
:1014E00002400121C4F20105C0F202004FF440673E
:1014F00004F0CEFAC4F20107284605F069FC38462C
:1015000005F066FC012102225120049400948DF81C
:1015100013208DF800108DF801108DF810108DF843
:101520001110019402948DF80C40059406948DF8E6
:101530001C4004F02BF841F25973CDF2B713A3FB12
:101540000020410B4FF6FF72E9612846FA616946B7
:101550001F4D05F0A9FB384604A905F0A5FB404640
:1015600021462A460BF030FF0EB3022E2DD0032E5B
:1015700029D0012E25D0042E21D04FF4C043C4F22F
:1015800000030824042101209865C3F8A410C3F8BF
:10159000A4409C650F4B00221A700F4B1A800F4B12
:1015A00011461A80FFF7E8FE08B0BDE8F0810C4C48
:1015B000286821460BF05AFE0A4B1C60DDE70A4CF6
:1015C000F6E70A4CF4E70A4CF2E70A4CF0E700BFF2
:1015D000E8010020E4010020E0010020E6010020F5
:1015E00054000020EC010020180000202C000020F6
:1015F000400000206800002000B540F2E813C2F26D
:10160000000383B001A918680BF00EFF019808F0E1
:10161000BFF90028D4BF0020012003B000BD00BFE7
:101620002DE9F04FA14C91B00D468146002620686F
:101630000E960CA917460BF0F7FE002D44D19C4DD9
:101640002878002823D19B4B9B4A9C480021197085
:1016500011700160002F40F0B0800E9810B911B0E9
:10166000BDE8F08F01262E7000F0E4FB60B1944FCE
:10167000944938464323096800F8013B0CF072F89E
:10168000206839460BF0D8FE20680BF05FFB8E4EC9
:101690008E4F2068009708A90AAA33460BF028FE4F
:1016A000DFF808A2804600282DD0894E3278002A23
:1016B00040F0978087480178002940F083802A789D
:1016C000101C18BF0120CAE7794D2B78002BBAD027
:1016D0000FA97C4F20682E700BF0A6FE20680BF03F
:1016E000CBFB38687C497D4B82780E800F981E803A
:1016F0000F2107F011FF3A680F98D278102107F0F8
:101700000BFF37469CE733685A06CED5B7F9002061
:10171000B7F860E0BDF92800DFF8C8B1BDF920C016
:10172000079023F04007376037686D4958464423D7
:1017300000F8013B8DE88010079F734602970CF07C
:101740004BFE5946DAF800000BF076FE3268DFF8FF
:1017500064C1594B042112F0FF00297000F09880F9
:1017600012F001004FD1554F8CF80000187038600E
:10177000970705D540F2D810C2F20000022101708F
:10178000500701D504212970170701D504212970BC
:10179000D00601D504212970920640F1338104213D
:1017A00029700FAFB9F1000F40F09E80042900F0BE
:1017B000D980474E0123337014E020680EA90BF046
:1017C00079FB4AE74FF4C042C4F2000200230370E1
:1017D0000421012008239065C2F8A410C2F8A430A7
:1017E0006DE70FAF394620680BF01EFE0F9808F02A
:1017F000CFF800283FF75EAF28784946FFF7BCFDD9
:101800000022327056E701218CF8001040F2D81700
:10181000C2F200071A7839700FAF002AC2D040F226
:10182000D812C2F200023946DAF80000DFF894B0AC
:1018300082F80080CDF818C005930BF0F5FDDAF8BA
:1018400000000BF019FBDBF80010234BDFF88CE0F5
:101850008A780F98A3F800800F21AEF8008007F077
:101860005BFEDBF800200F98D278102107F054FEC1
:1018700040F2D810C2F20000059B0178DDF818C0D4
:1018800003298FD1BDF82000134A0321108089E776
:1018900040F2D811C2F20001084A8CF80000032778
:1018A00018700F7010600FAFECE700BFE801002068
:1018B000D8010020E3010020F0010020DC0100201D
:1018C000D4050020EC010020D4010020D004002029
:1018D000C6010020D0010020E0010020E601002028
:1018E00030EE0000700500203168474E40F20112D2
:1018F00004200A402870002A67D001208CF80000DC
:101900001B783070002B3FF454AF4FF0000A39467B
:10191000DFF80CB1206886F800A00BF085FD206888
:10192000DFF8F0800BF0A8FADBF800203749927856
:10193000A1F800A00F98A8F800A00F2107F0ECFD77
:10194000DBF800300F98DA78102107F0E5FD3178E8
:1019500003297FF42BAFBDF82810A8F8001028E762
:1019600004262E702A4EDFF8BC800120307098F8D3
:101970000020002A3FF41DAF4FF0000A3946DFF87F
:10198000A0B0206885F800A00BF04EFD20680BF099
:1019900073FADBF800301D499A781E4BA1F800A0BD
:1019A0000F98A3F800A00F2107F0B6FDDBF8002088
:1019B0000F98D278102107F0AFFD88F800A086F8C4
:1019C00000A0154EC6F800A0F3E68CF8002040F207
:1019D00002201A70114B08401A6008B102223270BE
:1019E0000B05BDD4CE04BBD48804B9D44A05B7D402
:1019F00011F0FF0F01D0CB07B2D50321DFF814801F
:101A00002970A8E70FAF3BE7D8010020E0010020D4
:101A1000C5010020E6010020CC010020DC010020EF
:101A2000EC010020E501002000B50A4B83B001A9BC
:101A300018680BF0F9FC4FF44061C4F20101019801
:101A40004A6A91B207F0DCFE10B1034B0120187016
:101A500003B000BDE8010020E40100201B4B1A7810
:101A600010B432B11A4801684A1C026001680A29A0
:101A700024D0184B197831B1174A1068411C1160F5
:101A80001068322813D0154A13783BB1144B1968EB
:101A9000481C18601968B1F5FA6F01D010BC704786
:101AA000104800210124047019601170F6E70E48F7
:101AB00000210124047011601970E4E700210B4A31
:101AC0000160012010701970D3E700BFE20100200F
:101AD000C8010020E3010020DC010020C501002036
:101AE000CC010020E5010020F0010020D001002001
:101AF00070B5224B1C6882B00546204606F0C6FD34
:101B00002C21204607F060FDC0B28DF807002D2182
:101B100020469DF8076007F057FDC1B28DF8071009
:101B20009DF807202046202146EA022606E01821DB
:101B30000022204607F0F0FC2046202107F044FD5B
:101B4000C3B28DF807309DF807000306EFD406F105
:101B5000320148F21F528BB2C5F2EB12A2FB031006
:101B600041090A2988BF1946298020462121FF22E0
:101B700007F0D2FC002002B070BD00BFF4010020CD
:101B800008B5074B12210128186804D0002206F07E
:101B900055FE00B208BD202206F050FE00B208BD7E
:101BA000F401002070B5054688B0D8B9024602A9F4
:101BB00001A806F03FFF294B1C682946204602AACF
:101BC00007F01AFC1F212022204606F037FE2022B3
:101BD00006461221204606F031FE3218AD1828B212
:101BE00008B070BD1D480468204606F0C1FE02A979
:101BF0000646002201A806F01DFF002102AA204689
:101C000007F0FAFB01218022204606F017FE04218E
:101C100035180122204607F07FFCAEB233180C21A4
:101C2000242220469DB206F009FE07212E1800222C
:101C3000204606F003FEB5B22B18082100222046EC
:101C40009EB206F0FBFD092135180022204606F061
:101C5000F5FDAEB231188DB2B4E700BFF40100203B
:101C60002DE9F0478AB00AACE52504F8285D4FF469
:101C700024450746C4F200058846ADF8101004213B
:101C8000012002AEADF812100221AF4204ADADF852
:101C9000180005940796ADF82010924699462846FC
:101CA0005BD005F0F7FD002843D19DF809209DF891
:101CB000083002F0FC0000EB032143F6095202FB5E
:101CC00001F14B0BA3F5BB52103A4FF4244304200F
:101CD000C4F20003E021CAF80020ADF8120001228E
:101CE00002209F42ADF82000ADF810808DF8001062
:101CF0000594ADF818200796284636D005F0CAFDA1
:101D000000BB9DF809109DF8083001F0FC0202EBC1
:101D1000032045F2CD5101FB00F35A13A2F53741E0
:101D2000C9F800008A1EC9F8002000200AB0BDE8EA
:101D3000F08740B200210228CAF8001010D04FF0FE
:101D4000FF30F3E740B200230228C9F80030F6D193
:101D500044F6FE02CFF6FF72E5E70BF0BDFFA2E707
:101D60004EF69002CFF6FF72AFE70BF0B5FFC7E774
:101D700000B58BB004224FF42443ADF81010ADF839
:101D80001220FA210F22C4F200038DF800108DF802
:101D9000012000A902220591ADF8182002A908220D
:101DA00098420791ADF8202004A808D005F072FDF4
:101DB00010F0FF0F14BF002001200BB000BD0BF08E
:101DC0008BFFF5E730B583B002AD0024042151202C
:101DD00045F8044D04F086F820462246012104F01F
:101DE00033FA204629460BF023FB4EF61C50C0F276
:101DF000000000F031F803B030BD00BFFEF78CBE2C
:101E000000B5052983B002A909D00023084A41F88A
:101E1000043D184613600BF00BFB03B000BD01231B
:101E2000034A41F8043D002013600BF001FBF4E786
:101E3000F801002040F2F813C2F2000318680030E5
:101E400018BF0120704700BF40F27C03C2F20003BC
:101E5000186890F8200070472DE9F04F804685B053
:101E6000512003F027FB042803D05120042104F063
:101E700039F800200246012104F0E6F903F0DAF90E
:101E800040F27C02C2F2000200211068F8220CF03D
:101E90009AFA40F27C03C2F20003D8F808401968AD
:101EA00098E809004862081D0860CC628B6298F8C7
:101EB0000C5000228D77D8F8145081F8362081F824
:101EC000372081F8382081F83920D8F8004081F88F
:101ED00021200120072681F8206081F822200D634F
:101EE0004A7781F83420CA63A1F84200E479202CB3
:101EF000A1F8404000F01481402C08BFC1F8F42044
:101F000040F009810020A4084864886481F85400E6
:101F100088650C65D8F810505F882A78DF1902FBB5
:101F200004F5BB4204FB02220295019280F0F3808B
:101F30001A78002A00F0EF8081464FF0010C0390E0
:101F400004460546009009E0042800F0C5809B186F
:101F50009F4259D91A78002A00F0DD805878052868
:101F6000F2D1013404EB840693F802B001EBC60011
:101F700000F134024FEADB1B80F834B095609E78A4
:101F80004FF0010906F00F0009FA00FAD6709070C0
:101F9000A2F80EA0DE7806F003061671B3F804A0CE
:101FA000D8F810601561A2F80CA0556182F8205095
:101FB0005562365D002E00F0AE80BBF1000F00F0E0
:101FC000928082F805C0D8F810600AF1030A365DE5
:101FD0004FEAAA0A081806FB0AF6D661039E80F8A3
:101FE000D440D0699278CC444E44DDF808900396F2
:101FF0008144062A5FFA8CFCCDF8089000F28B80B1
:102000001A789B189F42A5D8886A019EC97F0379D8
:10201000DDF8009019368B427DD1032C7BD1039AD9
:10202000062A78D8B9F1060F75D872B64E4D2C68CD
:10203000611C01D0601C28604FF40043C4F20C0303
:102040000024196CC4F2100441F00C0242F2053075
:102050001A64C0F21C00082103F044FFA068029932
:1020600020F00103A360304602F016FA4FF48046D8
:10207000C4F20C06002856D14FF4C053A061A361EE
:10208000A1684FF46140CEF20000202241F001032C
:10209000A360C0F880210260716811F001014ED088
:1020A00040F27C06C2F200063368196B93F82000F8
:1020B0004A6883F82200022183F8201012B1884276
:1020C00000D090472868002837D0274B0138186087
:1020D000002832D162B620E0C87F9A7882421AD1B5
:1020E000501CC8778CE70AF103094FEAA90A0818BF
:1020F0000AFB0666D66180F8E440D069009EDDF8F0
:1021000004E0927801360EEB0009062A0096CDF81D
:1021100004907FF675AF6FF0030005B0BDE8F08F57
:10212000C1F8F400EEE629680029F4D00E4A481EF2
:1021300010600028EFD162B6EDE70020EDE740F235
:102140007C09C2F20009D9F80020136B92F8200034
:102150005B6882F8220082F82010002BB2D00028A1
:10216000B0D09847AEE700BF980300202DE9F007F4
:102170006D4E346810F0800F00F00F0004EB000586
:1021800014BF95F8D45095F8E450002D4DD1002897
:1021900040F08D80343400F08A80B2F5002F80F258
:1021A0008680A08992FBF0F0B0F5806F7FDA880717
:1021B0007DD172B65D4D2868471C01D00130286082
:1021C00094F80080A778B8F1000F1ED14FF4306961
:1021D0004FEA471CC4F210095CF8099009F4402A40
:1021E000BAF5402F02D0BAF5002F11D1C9F34059EA
:1021F000B9F1000F0CD018B1411E296001B962B6C7
:102200006FF00400BDE8F00770474FF41069DFE796
:1022100094F82090B9F1000F0DD018B1431E2B6037
:1022200003B962B66FF00100ECE705EB850504EB3E
:10223000C5043434B1E767B1366896F82060052EDE
:1022400038D018B1421E2A6002B962B66FF0080099
:10225000D8E74FF4006CC4F2100CB4F80C80366868
:10226000226102226761A16084F8202063622770E6
:1022700048F40023CCF81413D6F8F410CCF810333B
:10228000DCF8003341F0044223F03C4142EA010310
:10229000CCF8003320B10138286008B962B6B1E744
:1022A0000020AFE718B10138286000B962B66FF0BE
:1022B0000300A7E7A1602261C4F81490B8F1000FF1
:1022C000F0D1022784F8207063624AB3A3895E1EAE
:1022D000B218B2FBF3F703FB07F6FA044FF43063CE
:1022E000C4F21003634446EA02071A6902F060422E
:1022F0003A431A61A278A6614FF430635201C4F2E6
:102300001003D3184FF430625961A178C4F210025F
:102310004B01995821F03C4141F004419950B9E7F3
:10232000A6894FF40022D9E77C0000209803002002
:1023300040F25833C2F200031878704708B50A4BD0
:102340001B681A6B0146526893F8200083F820102E
:10235000062908BF83F8210083F8220012B18842C1
:1023600000D0904708BD00BF7C0000202DE9F00799
:102370006F4E346810F0800F00F00F0004EB000582
:1023800014BF95F8D45095F8E450002D4FD1002893
:1023900040F09380343400F09080B2F5002F80F24A
:1023A0008C80A08992FBF0F0B0F5806F80F2858080
:1023B000880740F0828072B65E4D2868471C01D0C5
:1023C0000130286094F800C0A778BCF1000F1ED13E
:1023D0004FF430694FEA4718C4F2100958F80990D1
:1023E00009F4402ABAF5402F02D0BAF5002F11D1D6
:1023F000C9F34059B9F1000F0CD018B1411E296042
:1024000001B962B66FF00400BDE8F00770474FF401
:102410001069DFE794F82090B9F1000F0DD018B1E2
:10242000431E2B6003B962B66FF00100ECE705EBC9
:10243000850504EBC5043434AFE767B1366896F818
:102440002060052E3ED018B1421E2A6002B962B645
:102450006FF00800D8E74FF0010CA16022616761BE
:1024600084F800C084F820C063620AB984F801C00F
:10247000A78934684FF40063C4F21003BA4228BF3E
:102480003A46C3F8141142F40022D4F8F410C3F809
:102490001021D3F8002141F0044122F03C421143C5
:1024A000C3F8001160B10138286048B962B6ABE7E3
:1024B00018B10138286000B962B66FF00300A3E7D5
:1024C0000020A1E7A1602261C4F81490BCF1000FC4
:1024D000EED0012784F82070636232B3A3895E1EB8
:1024E000B718B7FBF3F3DE044FF41067C4F210071C
:1024F00008EB070332431F6907F000473A431A61AC
:10250000A2784FF410635201C4F21003D3184FF4B1
:1025100010625961A178C4F210024B01995821F060
:102520003C4141F004419950BCE74FF40026DBE701
:102530007C000020980300208F4BF0B41B6810B182
:10254000002283F87C2093F85C4093F85E50B3F847
:102550006A10002C40F098804FF430646D01C4F292
:1025600010044FF430622C59C4F210020904AA1866
:10257000250400F1F6804FF47845CCF2D335B3F85A
:10258000687093F86060254045EA070444F0C05540
:1025900045F4004444EA864414604FF40062C4F2F7
:1025A0001002D5692943D16110B1002183F8A4102C
:1025B00093F8844093F88620B3F89210002C40F0F2
:1025C00086804FF430645501C4F210044FF4306239
:1025D0002C59C4F21002090414F4004F2A4440F0AC
:1025E000C5804FF47845CCF2D335B3F8907093F8AA
:1025F0008860254045EA070444F0C05444F4004490
:1026000044EA864414604FF40062C4F21002D469B4
:102610002143D16110B1002083F8CC0093F8AC10B5
:1026200093F8AE20B3F8BA00002974D04FF41061CB
:102630005401C4F210014FF410626158C4F2100248
:1026400011F4004F224440F087804FF47844CCF2DC
:102650001304B3F8B87093F8B06093F8B1500C401D
:1026600044EA070343F0C05141F4004343EA864182
:1026700041EA85514FF40063C4F210031160DA6936
:102680001043D861F0BC70474FF410646D01C4F280
:1026900010044FF410622C59C4F21002AA18250439
:1026A0005FD44FF47845CCF21305B3F868C093F8C3
:1026B000607093F86160254045EA0C0444F0C05511
:1026C00045F4004444EA874545EA865464E74FF4FC
:1026D00010645501C4F210044FF410622C59C4F276
:1026E000100214F4004F2A4440D14FF47845CCF244
:1026F0001305B3F890C093F8887093F8896025406B
:1027000045EA0C0444F0C05444F4004444EA8744CD
:1027100044EA865476E74FF430615401C4F2100164
:102720004FF430626158C4F21002000411F4004FFB
:10273000224411D14FF47844CCF2D334B3F8B860CA
:1027400093F8B0500C4044EA060343F0C05141F402
:10275000004343EA85418DE721F0705343F08051F7
:1027600088E724F0705545F0805415E724F0705444
:1027700044F0805446E700BF7C000020036B99685A
:102780002DE9F0410446056829B128468847C31C55
:1027900001D0BDE8F081287810F0600F14D16A787C
:1027A0000B2A11D8DFE812F0C400040110004C011C
:1027B0001000B10127011000DB017201FD011400BE
:1027C0009988002900F055834FF0FF30BDE8F08173
:1027D0002368E07F99888142F6D2DA88002AF3D113
:1027E00058880028F0D194F820100529ECD11B78E6
:1027F00003F01F02012AE7D1A24C236893F85C2062
:1028000093F85E00B3F86A10002A40F0B4824FF4E7
:1028100030644001C4F210044FF430620459C4F231
:10282000100209048218200400F1A0824FF47840BD
:10283000CCF2D330B3F8686093F860502040304356
:1028400040F0C05444F4004040EA854010604FF42A
:102850000062C4F2100293F88400D4692143D1616C
:10286000002800F0608293F88620B3F892104FF4AD
:1028700010645001C4F210044FF410620459C4F201
:1028800010028218200400F149824FF47840CCF203
:102890001300B3F8907093F8886093F88950204043
:1028A000384340F0C05444F4004040EA864444EACF
:1028B000855010604FF40062C4F2100293F8AC002F
:1028C000D4692143D161002800F07C8293F8AE20C6
:1028D000B3F8BA104FF410645001C4F210044FF46E
:1028E00010620459C4F210028218200400F111820F
:1028F0004FF47840CCF21300B3F8B87093F8B0609E
:1029000093F8B150204040EA070343F0C05040F430
:10291000004343EA864040EA85504FF40063C4F226
:1029200010031060DA6911430020D961BDE8F0811D
:102930002368588800287FF447AFD98802297FF49C
:1029400043AF1A7802F08000C0B200283FF43CAFD9
:1029500002F01F02012A00F07F82022A00F0948216
:10296000002A7FF431AF9B88002B7FF42DAF94F8C1
:102970002000021F012A3FF627AF434D607F2B80C6
:10298000002800F0F98229800321236BDA68002AED
:1029900000F03883904718B1298841F001032B805B
:1029A0000020394902220346BDE8F041FFF7DEBCB2
:1029B0002368D88800287FF407AF197811F01F0228
:1029C00040F01181988800287FF4FEAE59880129D3
:1029D0007FF4FAAE94F82020131F012B3FF6F4AEDB
:1029E000A16ACA7902F02003D9B200293FF4ECAE03
:1029F0006077BDE8F08123681A7802F09F01802992
:102A00007FF4E2AE5888020A022AC1B200F01E82A8
:102A1000032A00F01282012A7FF4D6AE00297FF447
:102A2000D3AE616A0A78002A3FF4CEAEDB8800207C
:102A30009A4228BF1A460346BDE8F041FFF796BC0C
:102A40002368DA88002A7FF4BFAE197811F01F00DE
:102A500040F01381988800287FF4B6AE5988012988
:102A60007FF4B2AE94F82020052A7FF4ADAEA36ABD
:102A7000DA7902F02003DAB2002A3FF4A5AE6177DA
:102A8000BDE8F0817C000020F402002023689A88D1
:102A9000002A7FF499AED88800287FF495AE5A8832
:102AA000110A7FF491AE1978C9067FF48DAE94F8BF
:102AB0002000042800F0AA8105287FF485AE22B109
:102AC000A16A487990427FF47FAE22775B88002B21
:102AD00040F01F820420FFF731FCB84A136893F8D6
:102AE0007C10002900F0308293F8A410002900F037
:102AF0005C8293F8CC00002800F040826FF0080060
:102B000002F052FA0020BDE8F0812568A98800296A
:102B10007FF45AAEE88800287FF456AE6B887F2B8E
:102B20003FF652AE2A78D0067FF44EAE94F82000DD
:102B3000032800F07A8104287FF446AE002B00F0D1
:102B4000F2814FF40062C4F21002D8B2116821F48D
:102B5000FE6343EA001010600020BDE8F0812168A8
:102B6000888800287FF430AECA88012A7FF42CAE12
:102B70004D88002D7FF428AE0B7803F09F0180294B
:102B80007FF422AE94F82000042823D005287FF497
:102B90001BAE284604F11C012B46BDE8F041FFF7AF
:102BA000E5BB2068E37F81889942BFF40DAEC288FF
:102BB000012A7FF409AE4588002D7FF405AE007828
:102BC00000F09F03812B7FF4FFAD94F820100529BE
:102BD0007FF4FAAD7A4C284621462B462570BDE895
:102BE000F041FFF7C3BB022A7FF4EEAD734998882A
:102BF0000A6800F00F0110F0800F02EB010014BF13
:102C000090F8D40090F8E400002840F07681002984
:102C10007FF4DAAD34323FF4D7AD907800283FF43A
:102C2000D3AD5B88002B7FF4CFAD94F8201005293D
:102C30007FF4CAAD1278002A00F00A824FF41062C5
:102C40004101C4F210024FF410638A5802F440208C
:102C5000C4F21003B0F5402F194403D0B0F5002F93
:102C600040F0008222F0705222F4001040F08053B5
:102C70000B60002358B2BDE8F08102287FF4A4ADB8
:102C80004E4A9988126811F0800F01F00F0102EB93
:102C9000010014BF90F8D40090F8E400002840F040
:102CA000268100297FF490AD34323FF48DAD9178C8
:102CB00000293FF489AD5B88002B7FF485AD94F843
:102CC000200005287FF480AD1078002800F0AF8147
:102CD0004FF410644801C4F210044FF4106301591A
:102CE00001F44024C4F21003B4F5802F184421F0FD
:102CF000705300F0B581002BB8BF43F0804343F41C
:102D0000001101600020002340B282F82030BDE8AD
:102D1000F08124F0705343F08050FEE524F07050B1
:102D200040F08050C5E593F88620B3F892104FF438
:102D300030645001C4F210044FF430620459C4F2FC
:102D40001002090482182004E8D44FF47840CCF231
:102D5000D330B3F8906093F888502040304340F06F
:102D6000C05444F4004040EA8540A2E524F070508D
:102D700040F080506AE54FF410644001C4F2100442
:102D80004FF410620459C4F2100282182004EDD4EA
:102D90004FF47840CCF21300B3F8687093F8606099
:102DA00093F861502040384340F0C05444F4004050
:102DB00040EA864444EA855048E500BF7C00002094
:102DC000F402002093F8AE20B3F8BA104FF4306448
:102DD0005001C4F210044FF430620459C4F21002DE
:102DE00009048218200494D44FF47840CCF2D330F4
:102DF000B3F8B86093F8B050204040EA060343F0BF
:102E0000C05040F4004343EA854086E5A16A1AB108
:102E1000487990427FF4D8AC22775A884B799A420D
:102E200000F089800020BDE8F081002B3FF489AEDE
:102E30000420FFF783FA6B8883E6A07F8142BFF608
:102E4000C3ACE26A52F821100A78ECE500297FF45D
:102E5000BBACA16A4A88E6E594F8200004283FF458
:102E6000AFAC05287FF4B0AC9A88E37F9A42BFF4F8
:102E7000ABAC7D4C00252846214602222B462580FE
:102E8000BDE8F041FFF772BA78489A88036812F0FB
:102E9000800F02F00F0203EB020114BF91F8D4106F
:102EA00091F8E41079BB002A7FF48EAC34333FF400
:102EB0008BAC94F82020042A31D0052A7FF484AC0E
:102EC00018789A78A0B34FF410635101C4F210033C
:102ED000C85800F44022B2F5402F03D0B2F5002FBD
:102EE0007FF472AC6049C0F340530B8058E500EBAF
:102EF000800102EBC1023432D9E600EB800102EB23
:102F0000C102343289E601EB810003EBC0033433A4
:102F1000CFE70020FFF710FB0020BDE8F081997893
:102F20000029CDD050E40320FFF708FA6B8808E6AB
:102F30004FF43063C9E70120FFF7FEFA0520FFF7E1
:102F4000FDF90020BDE8F08193F85C40002C63D1CE
:102F500093F85E10B3F86A004FF430624901C4F28E
:102F6000100200048C504FF40062C4F21002D169C8
:102F700021EA0000D061B7E5012106E593F8AC1025
:102F800051BB93F8AE00B3F8BA204FF43063400160
:102F9000C4F210031204C1504FF40060C4F21000D8
:102FA000C36923EA0202C261A8E593F88440F4B938
:102FB00093F88610B3F892004FF430624901C4F2DE
:102FC000100200048C504FF40062C4F21002D16968
:102FD00021EA0000D0618CE593F8AE10B3F8BA2076
:102FE0004FF410634901C4F21003C850D4E793F8BA
:102FF0008640B3F892004FF410626401C4F21002EC
:10300000A150E0E7A06AC37903F04002D0B20028E3
:103010003FF4C6AC2980C3E493F85E40B3F86A007D
:103020004FF410626401C4F21002A1509BE74FF408
:1030300030634901C4F21003CC5804F44025B5F5BF
:10304000802F24F070540BD044F40014CC505AE676
:103050004FF430624101C4F210024FF43063F4E5E2
:10306000FF2050E6FF2305E6F40200207C0000204C
:1030700090F8543070B50446032B25D8DFE803F0F0
:103080009A7E25029E48017889B14FF40063C4F20C
:103090001003221DC3F81423D3F80003D4F8F4203E
:1030A00020F03C4142F000400843C3F80003954B38
:1030B0001B6823B1944A00201168024698470023F8
:1030C00084F8543084F8343070BD456C002D40F0E5
:1030D000D8808C4E3368002B00F093802846A16C7A
:1030E0002A4698473560002800F08B8094F83630E7
:1030F0004FF410655A01C4F210054FF41063515992
:1031000001F440200125C4F21003B0F5802F84F8AB
:10311000345013440AD031F0705248BF42F080421C
:1031200042F40011196094F8360042014FF4306304
:10313000C4F210030020D15884F8340001F4402078
:10314000B0F5802F21F070511CBF41F40011D15017
:103150004FF40063C4F21003221DC3F81423D3F804
:103160000003D4F8F42020F03C4142F00040084332
:10317000C3F80003002384F8543070BD426C002A69
:1031800040F09D8090F83530012B00F01E8113B97E
:10319000816C5D480160002319461A46184684F880
:1031A0005430FEF7E3FF564B012203211A7084F8D6
:1031B000541070BD00235249524D436480F835309D
:1031C0002B600B70FFF7DAFA013000F0A18094F861
:1031D0005400421E012A40F2E080636C7BB32168F8
:1031E000C8888342BFF470AFB4F84020B3FBF2F15B
:1031F00002FB1133002B7FF467AF012084F8350008
:1032000070BD4FF40063C4F21003251DC3F81453BE
:10321000D3F80013D4F8F40021F03C4140F000450D
:1032200000222943C3F800131046114684F85420A5
:103230001346FFF79BF8032284F8542070BD4FF427
:103240000062C4F21002211DC2F81413D2F8000368
:10325000D4F8F41020F03C4041F000410143C2F8A2
:10326000001394F83500284A136000287FF428AF33
:10327000034601460246FFF779F8032384F85430E9
:1032800070BD90F83420002A40F08D801F49B4F8BA
:10329000402008684FF40063C4F2100342F4002297
:1032A000D0F8F410C3F81023D3F8000341F0044120
:1032B00020F03C4241EA0200C3F8000370BD90F8E0
:1032C0003430002BE2D0B0F8400010494FF40063D6
:1032D0000968904238BF0246C4F2100342F400224B
:1032E000D1F8F400C3F81021D3F8002140F00441D4
:1032F00022F03C4041EA0002C3F8002170BD00BF4B
:1033000000030020F8020020FC0200207C000020C6
:1033100094F836204FF410665001C4F210064FF4B2
:103320001063815901F440250126C4F21003B5F55C
:10333000802F84F83460184409D031F0705248BFAF
:1033400042F0804242F40013036094F836204FF4B8
:1033500030635201C4F210030020D15884F83400C5
:1033600001F44020B0F5802F21F070511CBF41F4D2
:103370000011D1504FF40063C4F21003221DC3F8B2
:103380001423D3F80003D4F8F42020F03C4142F099
:1033900000400843C3F8000370BDA36D02282B60F2
:1033A0003FF492AE19E7B0F840100F484FF40063B5
:1033B0000268C4F21003A94238BF0D4645F4002547
:1033C000D2F8F400C3F810518EE71046A56C074EF2
:1033D00084F85420114603463560FEF7C7FF0220EB
:1033E00084F8350070BD00BF7C000020FC02002086
:1033F000164B10B51A6810F0800F00F00F0002EBAA
:10340000000314BF93F8D43093F8E43043B908B9FB
:1034100002F1340393F82020501E01280AD910BD70
:1034200003EB830102EBC103343393F82020501ED9
:103430000128F4D85C6A002083F82000002CEED02C
:10344000586259691A69A04710BD00BF7C0000206E
:1034500070B46648664B0026C4F21006012404705E
:103460001A68644CB36964482360336892F85C104E
:103470000360B468614B62481C60F46892F85E5067
:103480000460736A5F4C60482360B66A4FF400635F
:10349000C4F2100306601C685C4E5D4834605C68D2
:1034A0000460DE695B4C5C4826601E6906605C69EE
:1034B0005A4E4FF44063C4F210033460D3F8000254
:1034C000574C2060002940F08D804FF430610B464E
:1034D0006D01C4F21003C4F21001EE585148524B72
:1034E0006C18524925696469066092F884600D6021
:1034F0001C6092F88650002E6ED14FF430646D013E
:103500002646C4F210042C19C4F21006AE592569DF
:1035100064694D605C6092F8AC40466092F8AE50D1
:10352000002C5CD04FF4106214466D01C4F21004FC
:10353000C4F21002AA182D591469526985604FF41B
:103540008270C4F210008C609A600168384B4FF4AE
:103550008474C4F21004196020684FF48672C4F2B7
:103560001002586011684FF40062C4F210029960B2
:10357000136823F07C4444F08050106014680021EC
:10358000C4F2100100204FF44063C4F21003C8F2EB
:10359000800044F0080414608861D3F8002242F0EF
:1035A0000401C3F80012D3F8000240F00802C3F887
:1035B0000022D3F800024FF40041C4F20C0140F0A5
:1035C0000102C3F80022402308464B62C16A0B0483
:1035D000FCD4012070BC70474FF410648FE74FF4A7
:1035E0003062A1E74FF4106171E700BF580300207B
:1035F0007C0000203403002054030020300300200E
:103600003C0300201403002010030020400300208E
:1036100060030020440300205C03002038030020E6
:103620006403002004030020180300204803002046
:1036300024030020A24B2DE9F04100225120042157
:103640004FF44064C4F210041A7002F04BFC42F2D2
:103650000530C0F21C00082102F044FCD4F800023E
:10366000984F99493B6820F00105C4F80052D4F8FE
:10367000006293F85C5026F00C02C4F80022934CD0
:10368000934A27680026C4F210064FF40060F760E2
:103690001668C4F210004FF4827706600C68C4F21A
:1036A00010074FF484703C604E68C4F210004FF471
:1036B00086720660C4F2100289688648116093F829
:1036C0005E700268002D40F08E80D1037DD44FF4EF
:1036D00030657E01C4F210054FF4306442F0805131
:1036E000C4F21004715134197B497C4A0F68156883
:1036F00093F884602761656193F88650002E40F04E
:1037000090804668F70340F1C5804FF430676D0143
:10371000C4F210074FF4306446F00056C4F21004AF
:10372000EE512C1955684E682661656193F8AC40DE
:1037300093F8AE50002C00F09180836889689268FD
:1037400023F07054DB034FF410634CBF44F000547B
:1037500044F0805418466D01C4F21003EB18C4F213
:1037600010002C5019615A615D484FF440620168A5
:103770005C48C4F210024FF40063C2F80012016802
:103780005948C4F210030022596101685748196171
:1037900001685748D9610168564859600168C4F208
:1037A0001002012091625449096851625349096825
:1037B00091605349096811605249096891615A68DA
:1037C00042F400615960BDE8F0814FF430657F013B
:1037D000C4F210054FF43066C4F2100642F00052F5
:1037E000BC197A5180E722F07058D2034CD548F0CA
:1037F00000554FF41064A4467E013749374A0F68DC
:10380000C4F2100CC4F2100446F80C5034191568B8
:1038100093F884602761656193F88650002E3FF429
:1038200070AF4768FC0327F0705E30D54EF0005C47
:103830004FF410646D012646C4F210042C194F6831
:10384000C4F2100645F806C027615768676193F80F
:10385000AC4093F8AE50002C7FF46FAF80684FF40B
:1038600030646D0110F4803FC4F210044FF43063F3
:103870001ED040F00050C4F210032851EB188968A4
:10388000926819615A616FE748F08055B1E74EF0D0
:10389000805CCDE74FF430676D01C4F210074FF440
:1038A0003064C4F2100446F080562C19EE5139E70A
:1038B00040F08050C4F210032851EB18DFE700BF3E
:1038C000580300207C000020240300203C0300203B
:1038D00040030020040300204803002018030020B8
:1038E00064030020380300205C0300204403002010
:1038F0006003002010030020140300203003002088
:1039000054030020340300202DE9F04F89B072B633
:10391000DFF8FCB0DBF800305C1C02D0581CCBF8A0
:1039200000003A4C2178002960D14FF48043C4F262
:103930000C03996811B11A68910331D40020C4F2C4
:1039400010004269816911EA020A1ED01AF4000FC0
:1039500040F05B84BAF1000FC0F276841AF4006F75
:1039600040F01C831AF0080F40F034831AF4005F13
:1039700040F048831AF4805F40F07E831AF4802F71
:1039800040F0AD821AF4002F44D1DBF8000020B1E2
:103990001F4A431E136003B962B609B0BDE8F08F39
:1039A0009868C20705D5012119615B68DB0700F142
:1039B00082844FF48041C4F20C018A689007BDD51F
:1039C000022008614B68D907B8D4217831B90022A8
:1039D000C4F210024FF0FF309161506123780BB9AF
:1039E000FFF736FD0020FEF7A9FCA7E70022022022
:1039F000012102F029FC4FF40042C4F20C02202302
:103A00005362D06A0004FCD58FE700BF5803002042
:103A1000980300204FF40060C4F210008269C1696D
:103A200011400C0CE00750D5AF4E306890F8E450D0
:103A3000002D40F0508400F1340291784FF430634F
:103A40004D01C4F210034FF40061EB18C4F21001F1
:103A50009D6849690D404FF43063E907C4F21003D3
:103A60000DD501279F60176993899F4240F20D850C
:103A7000F91A5769DB1953611161FFF7F9FA280741
:103A800023D54FF40060C4F21000D0F8082312F0E0
:103A9000400200F087844022C0F80823D0F81413B5
:103AA0003068083901604FF40063C4F21003021D4E
:103AB000D3F8101341F0C041C3F81013C3F8142316
:103AC0000822C3F80823FFF7D3FA04F0020083B2F8
:103AD000002B50D0844E356895F8E520002A40F040
:103AE000088490784FF430634501C4F210034FF41A
:103AF0000061E818C4F2100183684D691D40E907B0
:103B000013D54FF43267C4F210070121B9603B6945
:103B100097691169D07823F07F4323F47803FB1A67
:103B2000C91A53611161FFF763FC2A0723D54FF4CB
:103B30000060C4F21000D0F8082312F0400200F038
:103B400078844022C0F80823D0F814333068083B4A
:103B500003604FF40063C4F21003021DD3F8101386
:103B600041F0C041C3F81013C3F814230822C3F86E
:103B70000823FFF77DFA04F0040083B2002B50D035
:103B8000594E356895F8E620002A40F0AB839078CE
:103B90004FF430634501C4F210034FF40061E8189C
:103BA000C4F2100183684D691D40EB0713D54FF433
:103BB0003467C4F210070121B9603B699769116944
:103BC000D07823F07F4323F47803FB1AC91A53619A
:103BD0001161FFF70DFC280723D54FF40060C4F2F4
:103BE0001000D0F8082312F0400200F03184402287
:103BF000C0F80823D0F814333068083B03604FF452
:103C00000063C4F21003021DD3F8101341F0C04149
:103C1000C3F81013C3F814230822C3F80823FFF7CE
:103C200027FA04F0080083B2002B50D02E4E3568DE
:103C300095F8E720002A40F0478390784FF43063EE
:103C40004501C4F210034FF40061E818C4F21001FA
:103C500083684D691D40E90713D54FF43667C4F2F8
:103C600010070121B9603B6997691169D07823F089
:103C70007F4323F47803FB1AC91A53611161FFF7DC
:103C8000B7FB2A0723D54FF40060C4F21000D0F828
:103C9000082312F0400200F0B0834022C0F808234D
:103CA000D0F814333068083B03604FF40063C4F26B
:103CB0001003021DD3F8101341F0C041C3F81013D4
:103CC000C3F814230822C3F80823FFF7D1F904F03E
:103CD000100083B2002B53D0034E356895F8E820CE
:103CE000002A40F01F8301E07C00002090784FF410
:103CF00030634501C4F210034FF40061E818C4F2C8
:103D0000100183684D691D40EB0713D54FF43867E8
:103D1000C4F210070121B9603B6997691169D07835
:103D200023F07F4323F47803FB1AC91A536111610E
:103D3000FFF75EFB280723D54FF40060C4F21000A4
:103D4000D0F8082312F0400200F049834022C0F866
:103D50000823D0F814333068083B03604FF4006345
:103D6000C4F21003021DD3F8101341F0C041C3F890
:103D70001013C3F814230822C3F80823FFF778F9B7
:103D800004F0200083B2002B50D0834E356895F8A4
:103D9000E920002A40F0BF8290784FF4306345015B
:103DA000C4F210034FF40061E818C4F210018368F4
:103DB0004D691D40E90713D54FF43A67C4F2100767
:103DC0000121B9603B6997691169D07823F07F437D
:103DD00023F47803FB1AC91A53611161FFF708FB3A
:103DE0002A0723D54FF40060C4F21000D0F808234E
:103DF00012F0400200F0E5824022C0F80823D0F81B
:103E000014333068083B03604FF40063C4F21003BE
:103E1000021DD3F8101341F0C041C3F81013C3F8CA
:103E200014230822C3F80823FFF722F904F0400006
:103E300084B2002C3FF4A9AD574D2C6894F8EA20C9
:103E4000002A40F0618290784FF430644301C4F25C
:103E500010044FF400611819C4F2100183684C6912
:103E60001C40E30713D54FF43C66C4F21006012151
:103E7000B160336996691169D07823F07F4323F4E8
:103E80007803F31AC91A53611161FFF7B1FA2007D9
:103E90007FF57BAD4FF40060C4F21000D0F808232A
:103EA00012F0400100F0B7824023C0F80833D0F888
:103EB00014232868083A02604FF40063C4F2100328
:103EC000021DD3F8101341F0C041C3F81013C3F81A
:103ED00014230822C3F80823FFF7CAF855E54FF466
:103EE0000067C4F210070126BD69FB694FF4016940
:103EF00005EA03084FF410671FFA88F8C4F21007A8
:103F000000253446C4F2100937E040F27C00C2F2CA
:103F100000000068421992F8D420002A40F0A781DE
:103F200015F0FF0F08BF00F1340292F802C0D9F873
:103F300000104FF410634FEA4C1CC4F210036344AA
:103F40009B680B40DB071BD50121B960002D40F0B9
:103F50009981D2F810E093899E4540F28E81516993
:103F6000C3EB0E0C5B185361C2F810C0FFF780F86A
:103F70006400A4B201350136203714EA080FC4D119
:103F80006400072EA4B2F5D12AF4802A1AF4002F77
:103F90003FF4FBAC3EE500BF7C0000200023C4F2F0
:103FA00010034FF400626FF009005A6100F0FCFF4B
:103FB000FDF74AFF002800F0F181FDF745FF0238C8
:103FC000C1B2032940F26F812AF4006A1AF0080F87
:103FD0003FF4CCACCB4A1068016B0023C4F2100351
:103FE0000A69082058613AB14FF40061C4F2100127
:103FF0008B68C3F30D2090472AF0080A1AF4005F7B
:104000003FF4B8AC24780CB1FFF714FB4FF4006315
:10401000C4F21003BB4E5D68316825F4F06747F4C5
:104020008074D1F8F4000A6B5C60D3F80063176900
:1040300040F0044C002243F608054FF4605426F08B
:104040003C460020C4F21002C8F20C05C8F20C0471
:104050004CEA06062AF4005AC3F80063874218BFE8
:104060002C464FF0FF331AF4805F81F854009061C2
:10407000536194613FF482AC4FF40065C4F21005C3
:1040800000216F68C4F2100127F4F06424F00106E7
:10409000102220206E60C4F210020861136800270D
:1040A00013F0200EC4F21007F8D1CDF804E04FF45D
:1040B000126EC4F2100E4FF41063CDF80CE0C4F28F
:1040C00010034FF41A6E0293C4F2100E4FF41863EB
:1040D000CDF814E0C4F210034FF4346E0493C4F22C
:1040E000100E4FF41C63CDF81CE0C4F21003DDF891
:1040F00008E006934FF0FF33CEF80830DDF80CE00F
:104100004FF414694FF41668CEF80830C4F2100961
:10411000DDF810E0C9F80830C4F210084FF4306C34
:10412000C8F80830CEF80830DDF814E04FF43266F5
:10413000CEF80830C4F2100CDDF818E0C4F2100616
:104140004FF436644FF438604FF43A614FF43C62F8
:10415000CEF80830C4F21004CCF80830C4F21000D5
:10416000B360C4F21001079EDDF804E0B360C4F24E
:1041700010024FF40065C4F21005A36083604FF095
:1041800001148B600920936001215E4AEC61686133
:10419000296112682E68106B111D26F4FE644FF021
:1041A000C0462C6082F834E0C5F810631160C5F891
:1041B0001413D2F8F460DCF800400569006843F697
:1041C00008014FF4605246F0044624F03C44C8F223
:1041D0000C01C8F20C023443002D18BF0A46CCF87B
:1041E0000040C7F818E07B61BA6100B18047032046
:1041F000FEF7A4F82AF4805A6FF00A0000F0D4FE0B
:104200001AF4802F3FF4BEAB69E64FF4000343611C
:10421000207808B1FFF70EFA4FF48042C4F20C0286
:104220005168CA0740F1B3804FF48040C4F20C00DB
:10423000426812F0010032D1FEF780F82AF4000A39
:10424000BAF1000FBFF68AAB0021C4F210014FF0A3
:1042500000434B61207800286BD12A4A126892F8FB
:104260002100FEF76BF82AF0004AFFF777BB02EB5C
:10427000820100EBC102343257E65169AC460EEBC5
:10428000010370E639691369D07821F07F4121F488
:1042900078015B1A53611161FFF7AAF870E60320F9
:1042A000FEF74CF8CAE723780BB9FFF7D1F80620E0
:1042B000FEF744F888E62278002A40F0D8800220F1
:1042C000FEF73CF8FFF775BB02EB820105EBC1027C
:1042D00002F13402B1E405EB850300EBC302343292
:1042E000FFF7ABBB02EB820105EBC10202F1340226
:1042F0004DE402EB820105EBC10202F13402FFF74B
:10430000F0BB00BF7C00002002EB820304EBC30182
:1043100001F1340297E502EB820105EBC10202F1E3
:10432000340239E502EB820105EBC10202F13402ED
:10433000DCE4FFF77FF900288FD056494FF4006383
:104340000A68C4F21003002082F83400111D4FF0F7
:10435000C040C3F810031160C3F81413D3F800036E
:10436000D2F8F41020F03C4041F004410843C3F877
:104370000003586820F4F06040F480705860D3F86F
:10438000000320F03C400143C3F8001367E72378A3
:10439000002B7FF449AFFFF75BF845E70220FDF7FC
:1043A000CDFF0AE6D0F81013C1F34173032B01D0FF
:1043B000C3F10202306800EBC2010B1D0360FFF77E
:1043C00072BBD0F81033C3F34171032901D0C1F19E
:1043D0000202306800EBC203191D016014E5D0F839
:1043E0001033C3F34171032901D0C1F102023068D7
:1043F00000EBC203191D0160B0E4D0F81033C3F321
:104400004171032901D0C1F10202306800EBC203FF
:10441000191D016049E4D0F81033C3F3417003283B
:1044200018BFC0F10201286800EBC102111D016034
:1044300042E5D0F81033C3F34171032901D0C1F133
:104440000202306800EBC203191D0160FFF781BB57
:10445000D0F81033C3F34171032901D0C1F1020236
:10446000306800EBC203191D0160FFF7C8BBFFF7FE
:10447000E1F800283FF423AF0020C4F2100000212F
:104480004FF4C0538161836119E753690021FB1820
:10449000FFF7F1BA7C0000202DE9F04F05464FF4FC
:1044A000524087B0C0F202000E46012101F0F0FA3E
:1044B000052001460422002302F028F84FF4804230
:1044C000C4F20C024FF44063C4F210030321916163
:1044D000D3F8000220F00104C3F80042D3F8002210
:1044E000102122F00C00C3F80002C4F210010C6885
:1044F0001023002CC4F21003F9DA1A6842F001010B
:10450000196018680022C107C4F21002F9D4D368F8
:10451000214C23F0604141F08040D060226822B1FC
:10452000531E2360002B00F0D581322000F03CFEAA
:1045300072B621684C1C02D017484C1C04604FF422
:104540000062C4F210020020136843F003011160FE
:104550001468124B44F004011B6811601468C4F223
:10456000100024F4C05111608268102D2CBF2C461D
:10457000102422F03E01A205920D41F0220181603B
:104580004262196D102938BF102142EA014282624D
:10459000A4B289B2012219E0980300207C00002017
:1045A00093F8D70000283AD193F8D800002856D1C4
:1045B00093F8D900002872D193F8DA00002840F06F
:1045C0008F800132D2B2072A00F0AC8093F8D50078
:1045D000002840F0618193F8D6000028E0D000EB7D
:1045E000800703EBC70090F8397034309742D7D179
:1045F0000C19A4B2C1694FF480704FEA820EC4F264
:1046000010006705102938BF102170447F0D47EA5C
:104610000147076093F8D70089B20028C4D000EBA7
:10462000800703EBC70090F8397034309742BBD154
:104630000C19A4B2C1694FF480704FEA820CC4F225
:1046400010006705102938BF102160447F0D47EA2C
:104650000147076093F8D80089B20028A8D000EB82
:10466000800703EBC70090F83970343097429FD130
:104670000C19A4B2C1694FF480704FEA820EC4F2E3
:1046800010006705102938BF102170447F0D47EADC
:104690000147076093F8D90089B200288CD000EB5D
:1046A000800703EBC70090F839703430974283D10C
:1046B0000C19A4B2C1694FF480704FEA820CC4F2A5
:1046C00010006705102938BF102160447F0D47EAAC
:1046D0000147076093F8DA0089B200283FF471AF10
:1046E00000EB800703EBC70090F839703430974235
:1046F0007FF467AF0C19A4B2C1694FF480704FEA20
:10470000820E67050132C4F21000102938BF102153
:104710007F0D7044D2B247EA0147072A89B2076089
:104720007FF454AF7519B5F5F97F00F2D880B4F570
:10473000F97F00F2D4800026C4F2100610254FF451
:1047400084633361C4F210052C681027A006C4F2FC
:104750001007F9D4102038603A4616684FF48041AB
:1047600016F01000C4F20C01F7D14FF43462C4F219
:10477000100201924FF43662C4F2100202924FF41A
:104780003862C4F2100203924FF43A62C4F210028B
:1047900004924FF400634FF4106B4FF4126A4FF41D
:1047A00014694FF416684FF4186C4FF41A674FF4FD
:1047B0001C664FF430654FF432644FF43C62C4F22F
:1047C0001003C4F2100BC4F2100AC4F21009C4F2B0
:1047D0001008C4F2100CC4F21007C4F21006C4F2A0
:1047E0001005C4F21004C4F2100205924FF0FF321B
:1047F00018615861D8615863CBF80000CBF81000FD
:10480000CBF80820CAF80000CAF81000CAF808203F
:10481000C9F80000C9F81000C9F80820C8F800005D
:10482000C8F81000C8F80820CCF80000CCF8100038
:10483000CCF8082038603861BA6030603061B2600E
:1048400028602861AA602060019B2061A260186036
:1048500018619A60029B186018619A60039B186047
:1048600018619A60049B186018619A60059B186033
:1048700018619A600A68032342F400320A600B61EF
:104880004B614B6813F0010326D10220C860184623
:1048900040B207B0BDE8F08F00EB800703EBC70024
:1048A00090F83970343097427FF495AE6418A4B212
:1048B000C1694FF480704FEA820CC4F210006705A2
:1048C000102938BF102160447F0D47EA0147076077
:1048D00089B280E662B628E60122CA60D8E7FC20E9
:1048E000D6E700BF584B2DE9F00F186890F87CA070
:1048F00090F85C908AB0BAF1000F00F0358290F821
:104900005E20B0F86A40B9F1000F00F09A824FF4CF
:104910001061C4F210015201551890F8A410AE684D
:10492000069446F042070023AF60079303910029E5
:1049300000F0268290F8845090F886600195B0F8D7
:104940009220002D00F08B824FF410677301C4F2A7
:104950001007DD190699AE6890F8CC70114346F047
:1049600042020691AA600497002F00F0128290F88C
:10497000AC5090F8AE100295B0F8BA60002D00F07F
:104980007C824FF410674B01C4F21007DD190699C1
:104990003143AE68069146F04202AA600A4682B3ED
:1049A0004FF40063C4F21003B0F86A5019692A4248
:1049B00041F042061E610CD090F85E204FF4106763
:1049C0005301C4F21007DD5925F0705141F0006623
:1049D000DE51B0F89220069F17420CD090F8865016
:1049E0004FF410636E01C4F21003F15821F07052BD
:1049F00042F00067F750B0F8BA50069B2B4240F0E7
:104A00004B82079E002E3BD04FF40067C4F2100784
:104A10000022796821F4F065C4F2100245F4806345
:104A20007B60966946F0800191617D6825F4F063B2
:104A300043F400767E6057693E0612D4142243F692
:104A40009826C4F2100206E07C00002015682D06AE
:104A500007D45E1E05D0116811F0800F06F1FF33F8
:104A6000F4D00027C4F210074FF40063BA69C4F20F
:104A7000100322F08001B9615D6945F002065E61B4
:104A8000069BB0F89250B0F8BA60002B00F0C480DA
:104A90004FF4016243F698216FEA04086FEA050CAF
:104AA000F743CDF82090CDF824A0C4F210024FF0C7
:104AB000400B05970091C146E246234217D090F87B
:104AC0005E10D2F800804FF410674FEA411CC4F228
:104AD00010070CEB0701D1F808C008EA0C0717F023
:104AE000400F04D003EA0903C1F808B09BB22B427F
:104AF00017D090F88610D2F800804FF410674FEA74
:104B0000411CC4F210070CEB0701D1F808C008EAF9
:104B10000C0717F0400F04D003EA0A03C1F808B0ED
:104B20009BB2334216D090F8AE10D2F800804FF40A
:104B300010674FEA411CC4F210076744D7F808C059
:104B400008EA0C0111F0400F06D00599C7F808B02B
:104B50000B409BB2002B53D0009F791E2342009143
:104B600016D090F85EC0D2F800804FF410674FEA7C
:104B70004C11C4F21007CF19D7F808C008EA0C018D
:104B800011F0400F04D003EA0903C7F808B09BB244
:104B90002B4216D090F886C0D2F800804FF41067F0
:104BA0004FEA4C11C4F21007CF19D7F808C008EA31
:104BB0000C0111F0400F04D003EA0A03C7F808B053
:104BC0009BB2334216D090F8AEC0D2F800804FF4BA
:104BD00010674FEA4C11C4F21007CF19D7F808C07C
:104BE00008EA0C0111F0400F05D00599C7F808B08C
:104BF0000B409BB223B1009F791E00917FF45DAF03
:104C00004FF40063C4F21003DDF820901A69DDF858
:104C100024A022F040071F61BAF1000F40F04A8142
:104C2000039B002B40F06481049F002F40F07E81A5
:104C3000E7434FF4016CC4F2100C0397EF43E246D4
:104C400040F6140804970799069BCDF82090F74387
:104C500043F69822C4F210080597A446D146089C52
:104C6000002C00F0D18013EA0C0F16D090F85EA053
:104C7000D9F800B04FF410674FEA4A1AC4F210078F
:104C80005744D7F808A00BEA0A0A1AF0020F04D01A
:104C9000039C23400224BC609BB2019F002F00F0C4
:104CA00097802B4216D090F886A0D9F800B04FF428
:104CB00010674FEA4A1AC4F210075744D7F808A001
:104CC0000BEA0A0A1AF0020F04D0049C23400224C3
:104CD000BC609BB2029F002F60D0334216D090F888
:104CE000AEA0D9F800B04FF410674FEA4A1AC4F2E8
:104CF00010075744D7F808A00BEA0A0A1AF0020F67
:104D000004D0059C23400224BC609BB203B909B1C6
:104D1000013AA4D1069F9FB14FF40063C4F210037F
:104D200000211869C4F2100120F00200186110225D
:104D30004FF48463C4F210020B6111688906FCD43D
:104D4000079868B14FF40063C4F210035A6922F067
:104D500002015961586820F4F06242F480615960A0
:104D60000AB0BDE8F00F7047B0F86A40CDF81CA05B
:104D7000CDF818A090F8A410039100297FF4DAADC3
:104D800090F88420019290F8CC700497002F7FF463
:104D9000EEAD90F8AC30069A029300E63142B5D001
:104DA00090F8AEB04FF430674FEA4B1AC4F21007D8
:104DB0005744D7F808B0D8F800A00BEA0A0A1AF04E
:104DC000020FA5D0059C21400224BC6089B29DE75A
:104DD00029423FF47FAF90F886B04FF430674FEA36
:104DE0004B1AC4F210075744D7F808B0D8F800A0FF
:104DF0000BEA0A0A1AF0020F3FF46CAF049C214040
:104E00000224BC6089B265E711EA0C0F3FF445AF9C
:104E100090F85EB04FF430674FEA4B1AC4F21007B7
:104E20005744D7F808B0D8F800A00BEA0A0A1AF0DD
:104E3000020F3FF432AF039C21400224BC6089B2D0
:104E40002BE74FF430615501C4F210016E1807943E
:104E5000B768CDF8189047F00203B3608AE74FF4C3
:104E600030677301C4F21007DD190799AE6811436A
:104E700046F002020791AA6085E74FF430624F01C5
:104E8000C4F21002BB18079D9968069A354341F099
:104E9000020607959E6082E590F8AE604FF41067B9
:104EA0007201C4F21007D15921F0705545F000632A
:104EB000D351A6E590F85C1090F85E2000294FD100
:104EC0004FF43063C4F210035701F95821F03C420B
:104ED00042F00041F95090F85E707A01D15821F00B
:104EE000F84747F09041D150039B002B3FF49CAE14
:104EF00090F8841090F8862000293DD14FF4306757
:104F0000C4F210075301D95921F03C4242F000414C
:104F1000D95190F886305A01D15921F0F84343F025
:104F20009041D151049F002F3FF482AE90F8AC1015
:104F300090F8AE2061BB4FF43063C4F21003570108
:104F4000F95821F03C4242F00041F95090F8AE701F
:104F50007A01D15821F0F84747F09041D15067E6E7
:104F60004FF410635201C4F21003D75827F0F841F0
:104F700041F09047D75053E64FF410675201C4F206
:104F80001007D35923F0F84141F09043D3514BE639
:104F90004FF410635201C4F21003D75827F0F841C0
:104FA00041F09047D75043E610F10B0FF8B5054696
:104FB00001D0FFF797FC5C4C236893F87C209AB1F2
:104FC000D3F88060002283F87C206EB1186AC3F8A1
:104FD0008020042100F0FF10C0F20501884257D064
:104FE0002846196FDA6EB047236893F8A400A8B179
:104FF000D3F8A860002283F8A4207EB1186AC3F811
:10500000A820042100F0FF10C0F20501884257D00B
:105010002846D3F89810D3F89420B047236893F823
:10502000CC00A8B1D3F8D040002283F8CC207CB1CA
:10503000186AC3F8D020042100F0FF10C0F2050167
:1050400088420DD02846D3F8C010D3F8BC20A04722
:105050004FF46143CEF200032020C3F88001F8BD75
:1050600093F8AC1093F8AE60B3F8BA0000293ED1C3
:105070004FF430627601C4F210020004B1504FF4D4
:105080000062C4F21002D16921EA0001D161D9E7BE
:1050900093F85C1000293CD193F85E70B3F86A0075
:1050A0004FF430627F01C4F210020004B9504FF493
:1050B0000062C4F21002D16921EA0001D1618FE7D8
:1050C00093F88410D1B993F88670B3F892004FF436
:1050D00030627F01C4F210020004B9504FF4006244
:1050E000C4F21002D16921EA0001D16190E74FF4C6
:1050F00010617601C4F210017250C0E793F8867017
:10510000B3F892004FF410617F01C4F210017A509D
:10511000E4E793F85E70B3F86A004FF410617F0122
:10512000C4F210017A50C2E77C00002038B5002399
:10513000C4F201031A69D20600D438BD1020174CFE
:105140009861596B25684A195A6372B6144D2868DC
:10515000431C01D001302860124C236843B1186809
:105160002268411E1960B3B1196849B128682260EC
:105170000028E2D0431E2B60002BDED162B638BD82
:1051800098681973526820B12260804723681A46D4
:10519000E9E71346E7E728682260E9E7780300209B
:1051A0009803002068030020214B2DE9F0011968C5
:1051B00044F620620023A0FB01018B4208BF82421B
:1051C00083B01FD200274BF2E014C4F2010744F66B
:1051D0001F6CCFF6FF744FF0FF357E6A1FFA86F81A
:1051E0007E6AB6B2ADF80460BDF80460C8EB06068E
:1051F000B6B26645F4D9001941EB05018B4208BFF0
:105200008242EAD380B278B10022C4F20102114690
:10521000536A9AB24B6A9BB2ADF80630BDF80630BD
:105220009B1A9BB29842F5D803B0BDE8F0017047D5
:10523000780300202DE9F04F48F210108BB00024C5
:105240004FF00108C0F202008DF818808DF8194067
:105250008DF81A408DF81B408DF81C408DF81D40CC
:105260008DF81E408DF81F408DF820408DF82140AC
:105270008DF822408DF823408DF824408DF80C40A5
:105280008DF80D408DF80E408DF80F408DF81040D0
:105290008DF811408DF812408DF813408DF81440B0
:1052A0008DF815408DF8164000F070F900F5434375
:1052B00050335A0900F5F42A44F6D35B4DF6836166
:1052C000019200F59C55C4F21B3100F5FA70C1F251
:1052D000620B0AF5907AABFB000B45F6C529A1FBE2
:1052E0000A0A41F2597C01994FF0020E0835C0F6C6
:1052F0007C29CDF2B71C40F2783640F2703740F28C
:105300006C3240F27433C2F20002C2F20003ACFB12
:10531000050CC2F200064FEA0E40A9FB0119C2F2C9
:1053200000072546C4F201054FEA5C3C40F4A44066
:1053300041464FEA9B1B4FEA9A4A4FEAD919C3F8F4
:1053400000C08DF812E0C2F80090C6F800B0C7F8AF
:1053500000A000F09DFB4FF6FF7303AAEB6121460E
:10536000284601F0F9FC284606A901F09DFC4FF003
:10537000FF32AA61E96841F01000E860686A3168AC
:105380004FF46143CEF20003042240186863C3F86F
:1053900080211A600BB0BDE8F08F00BFF0B40A2383
:1053A00043604B780F78CC788E780D794A79190163
:1053B00041EA07632404334304F4FE04290223432F
:1053C00001F4FE410B430AB143F008030360F0BC53
:1053D000704700BF8A780223F0B44360062A18D8C9
:1053E000DFE802F04404575F1717370048F2B017A0
:1053F000C0F6E077466B7D687F6826F4FE43C7F30E
:10540000064423F07F063443C5F3066544EA0527C6
:1054100047630E784F780D79CB788C79360746EA5A
:10542000075646EA024242EA052242EA03130CB159
:1054300043F08073CA790AB143F004034A790AB190
:1054400043F00203097A09B143F00103C360F0BCE1
:10545000704748F2B015C0F6E075446BEE6824F072
:105460007F0706F07F033B434363D2E748F2B01364
:10547000C0F6E073456B5E685C6825F4FE4525F078
:105480007F0706F4FE463E4304F07F04264346634E
:10549000BFE748F2B013C0F6E073456B9E689C68A6
:1054A000EBE748F2B014C0F6E074466BA568A76855
:1054B000A3E700BF00F00F00411E042917D8DFE862
:1054C00001F0182B3D4F03004FF40043C4F20C03CE
:1054D000DA6A02F46030B0F5803F4BD0B0F5003F9F
:1054E0004AD0B0F5004F0CBF0820012070470020C3
:1054F00070474FF40042C4F20C02D16A01F47050BC
:10550000B0F5805F38D0B0F5005F33D0B0F5006FF4
:105510000CBF0420052070474FF40041C4F20C0179
:10552000886A00F00300022825D003282BD0012828
:1055300022D08B6AD80311D5092070474FF4004060
:10554000C4F20C00816A01F00C03082B12D00C2B62
:1055500019D0042B10D0826AD102EDD401207047FB
:105560004FF40041C4F20C010B6813F0805205D1D6
:10557000072070470220704703207047002A14BF9D
:105580000820012070470620704700BF00F4781003
:10559000B0F5602F08B500F03E8111D9B0F5B01F0D
:1055A00000F0F4803FD9B0F5D01F00F08C80B0F54A
:1055B000E01F00F00A81B0F5C01F79D0002008BDBF
:1055C000B0F5C02F00F014815BD9B0F5202F00F0AA
:1055D000BE80B0F5402F00F09480B0F5002FEDD1E3
:1055E0004FF40040C4F20C00836A03F00302022A65
:1055F00000F09481032A00F0CC81012A00F00F8290
:105600004FF40041C4F20C01886A000C01D002F092
:10561000FDFE4FF40043C4F20C039A6EC2F3031173
:1056200020FA01F008BDB0F5901F00F03581B0F50B
:10563000A01F00F01481B0F5801FBFD14FF40042CD
:10564000C4F20C02906A00F00301022900F05D81AF
:10565000032900F0D681012900F0D0814FF40043E6
:10566000C4F20C039A6A100C01D002F0CFFE4FF482
:105670000042C4F20C02916E01F0030320FA03F021
:1056800008BDB0F5003F00F02081B0F5802F00F09C
:105690001881002892D102F035FE4FF40042C4F286
:1056A0000C021168C1F382335A1CB0FBF2F008BD42
:1056B0000420C0F21800FFF7FDFE072803D00828D9
:1056C0007FF47CAFE7E74FF40040C4F20C0041697F
:1056D00001F4E063B3F5007F00F0A48140F207819C
:1056E000B3F5C06F00F0A881B3F5E06F00F09F81C3
:1056F000B3F5407F7FF462AF44F24020C0F20F0068
:1057000008BD4FF40043C4F20C03986A00F0030292
:10571000022A00F0F780032A00F06681012A00F0D7
:105720006081996A0B0C40F0938100204FF4004295
:10573000C4F20C021023916EB3FA83F2D3B2C3F118
:105740001F02C1F30131531820FA03F008BD4FF4D2
:105750000040C4F20C00826A02F00301022900F04A
:10576000D780032900F02981012900F02381836A71
:10577000180C01D002F04AFE4FF40041C4F20C01B3
:105780008B6EC3F3032220FA02F008BD4FF40040F1
:10579000C4F20C00826AC2F38101022900F0BB80CE
:1057A000032900F01481012900F00181836A180D9A
:1057B00001D002F02BFE4FF40041C4F20C010B6F3C
:1057C000C3F3011220FA02F008BD42F20530C0F224
:1057D0001C00FFF76FFE032800F09080082800F0FF
:1057E000B18002287FF4EAAEBDE8084002F012BEA4
:1057F0004FF40043C4F20C03986A00F0030102293D
:10580000F2D0032900F09380012977D09B6A180C0D
:105810003FF4D5AE51E04FF40040C4F20C00816A71
:1058200001F00303022B7FD0032B00F09B80012BA0
:1058300000F09580826A100C01D002F0E7FD4FF471
:105840000043C4F20C039A6ED96FC2F3013201F027
:10585000070320FA02F0591CB0FBF1F008BD4FF429
:105860000041C4F20C01886AC0F38102022A58D0B8
:10587000032A00F08480012A7ED08B6A1B0D40F041
:10588000E48000204FF40042C4F20C02136F03F0D6
:10589000030120FA01F008BD4FF40043C4F20C03E9
:1058A000986AC0F38102022A9ED0032A3FD0012ABF
:1058B00024D0996A080D3FF482AEBDE8084002F09A
:1058C000A5BDBDE8084002F09DBC02F01BFD4FF4F1
:1058D0000043C4F20C031A689968C2F382335A1C5D
:1058E000B0FBF2F001F00F0120FA01F008BD002B2F
:1058F0002CD149F68070C0F2D50008BDBDE8084043
:1059000002F080BD02F086FD10E702F083FDAEE6F6
:1059100002F080FD30E702F07DFD4CE702F07AFDF9
:1059200077E602F077FDADE702F074FD87E758688F
:10593000C20503D41B685B0040F1838002F062FC67
:10594000800808BDBDE8084002F0DCBCB3F5807FEC
:105950007FF434AE4DF6C000C0F2A70008BD02F0DF
:1059600051FD6CE74168CA0502D4006843007ED54A
:1059700002F048FC800862E702F044FD82E74868D4
:10598000C00502D40968490075D502F03BFC8008C7
:1059900078E74368D80506D44FF40042C4F20C02FD
:1059A000116849006BD502F02DFC800831E602F049
:1059B00029FD00E702F026FDDEE64268D20502D4AA
:1059C000006843005FD502F01DFC8008D4E6426801
:1059D000D20502D4006843003DD502F013FC8008D4
:1059E000E9E602F00FFDA1E65868C00502D41B6885
:1059F000590034D502F006FC800897E602F002FD5B
:105A000035E65068C00506D44FF40041C4F20C01DD
:105A10000B68590027D502F0F5FB800827E602F055
:105A2000F1FCF6E54CF6C070C0F26A0008BD46F61F
:105A30004070C0F2401008BD4FF47C50C0F2AB1073
:105A400008BD02F0DFFB400808BD02F0DFFC19E7EB
:105A500002F0DCFC6AE602F0D5FB4008ABE602F09F
:105A6000D1FB400862E602F0CDFB4008FFE502F002
:105A7000C9FB4008E3E602F0C5FB400802E702F07C
:105A8000C1FB4008C5E502F0BDFB400874E600BF5D
:105A900030B5C0F303230446581E83B005280DD843
:105AA000DFE800F00E12172335034FF47072C1F2D5
:105AB000E402C4F3043410198400216003B030BD43
:105AC0004022C1F2E402F4E74FF40872C1F2E402AA
:105AD000EFE751200191FFF7EDFC042801991CD05C
