:1000000000100020AD370000DF370000E1370000AE
:10001000DD370000DD370000DD370000DD37000090
:10002000DD370000DD370000DD370000E33700007A
:10003000DD370000DD370000E5370000E73700005E
:10004000E9370000150C0000ED370000EF37000025
:10005000FD0B0000F33700007D0C0000F7370000B7
:10006000F9370000FB370000FD370000FF370000C4
:10007000092E000003380000053800000738000092
:10008000093800000000000000000000000000002F
:100090000000000000000000000000000000000060
:1000A0000000000000000000000000000000000050
:1000B0000000000000000000000000000000000040
:1000C0000000000000000000000000000000000030
:1000D0000000000000000000000000000000000020
:1000E0000000000000000000000000000000000010
:1000F0000000000000000000000000000000000000
:1001000010B5064C2378002B07D1054B002B02D0ED
:10011000044800E000BF0123237010BD88000020C8
:1001200000000000E85F000008B5084B002B03D07A
:100130000748084900E000BF07480368002B03D0C8
:10014000064B002B00D0984708BDC04600000000B9
:10015000E85F00008C000020880000200000000004
:10016000164B002B00D1144B9D46402292029A1A46
:10017000924600218B460F461348144A121A04F087
:10018000DCF80F4B002B00D098470E4B002B00D013
:1001900098470020002104000D000D48002802D0DF
:1001A0000C4800E000BF04F099F82000290000F09E
:1001B0008FFB04F07DF8C04600000800001000200E
:1001C000000000000000000088000020740A0020E9
:1001D000000000000000000038B52023041C0D1EA4
:1001E00001DA4D422D232370FA2100236371281C6C
:1001F000890003F023FC081C642103F0C9FB2E23B3
:100200003030E37020710D49281C03F017FC081CE6
:10021000FA21890003F0BCFB3030A0700849281C8B
:1002200003F00CFC081C054903F0B2FB3030C0B2EF
:10023000302800D12020607038BDC0461027000053
:10024000A086010010B502F011F9002800D0FEE7E9
:1002500001F056FD002800D0FEE7054C201C01F0FF
:1002600011FE002800D0FEE7024B6060A36010BDC5
:10027000A4000020FFFFFF00F0B585B0314C061C44
:10028000201C151C03911F1C01F033FE002D19D0FA
:100290000025282300932C490F2205230195201CBB
:1002A00002F093F83223009328490F220523019589
:1002B000201C02F08AF83C2300930195201C24495D
:1002C0000F2220E01423009322490E2205230195DA
:1002D000201C02F07AF81E2300931F490E220523EA
:1002E0000195201C02F071F8282300931B490F226E
:1002F00005230195201C02F068F832231849009369
:100300000195201C0D22052302F05FF8002F06D076
:1003100073230093002301930A4812490AE0002E38
:1003200002D0039B002B09D17323009305480023BF
:100330000D4901931022052302F047F801F01CFD3E
:1003400005B0F0BDA4000020745B0000835B0000DA
:10035000935B0000A35B0000B25B0000BF5B00008A
:10036000CF5B0000DD5B0000EA5B0000F0B591B000
:10037000049316AB0B9204CB02901B780791069363
:100380008024002801DAC4006442029D0026029BFA
:100390002A1C002B00DA3032CA4FB3B20593191C65
:1003A000D2190020231C01F029FB0390802C0BD0D4
:1003B000029A8023BF1A1B1BA0B27A19059901F07B
:1003C0001DFB039B03430393039A002A00D0FEE71F
:1003D00001363035802EDAD1069B002B09D0039AE6
:1003E000032300930192B848B84910221C2301F05E
:1003F000ECFF169B002B02DD1D1C103D01E0169D3D
:100400001035079B029A092058430521D40003F0B8
:10041000BFFAFA22D2018618311C0DA8FFF7DCFEC4
:100420000DA803F092FF26231B1B0393ED00282346
:100430005B1B00930023021C01930DA9039BA248A0
:1004400001F0C3FFFA21301C890003F0A1FA5B27F9
:100450000F2808DD0E27682805DCDF2710387843D1
:100460005B2700123F1A169B102B00D05B27964E7D
:1004700060231B1B191C05935B223B1C301C01F0E5
:10048000E4FD61231B1B191C06935B223B1C301CE3
:1004900001F0DBFD62231B1B191C08935B223B1C34
:1004A000301C01F0D2FD70231B1B09932A23002767
:1004B0005B1B009386490122099B0197301C01F0C8
:1004C00084FF48231B1B0A9355235B1B0093814920
:1004D00002220A9B0197301C01F077FF0F22551B67
:1004E00040231B1B00957C4903220197301C01F01F
:1004F0006CFF169A07990DA8D500FFF76DFE0DA8A1
:1005000003F023FF28235B1B021C00930DA9019716
:10051000301C039B01F059FFFA210798890003F072
:1005200037FAB84208DD0E27292806DCEE27784383
:100530005B27C0113F1A00E05A27169B002B00D002
:100540005B273B1C05995B22301C01F07EFD3B1CA8
:1005500006995B22301C01F078FD3B1C08995B2258
:10056000301C01F072FD55220027521B50231B1B2B
:1005700000925A4901220197301C01F026FF0F23F7
:100580005B1B0093564902220A9B0197301C01F025
:100590001CFF2A235D1B0122099B009551490DADCB
:1005A0000197301C01F011FF0B99281CFFF714FE76
:1005B000281C03F0CAFE2821B523021C1B1B009136
:1005C0000197291C301C01F000FFFA210B988900CB
:1005D00003F090F9021E322A01DD6422121A424B06
:1005E0009F56312804DC3222101A1B565B4203E06E
:1005F0001B18323B1B785BB2029A334E102A0AD189
:100600006922D71BC821C833091B1B1B0097301C4C
:1006100001F06DFD04E0029B002B01DC8134FF340E
:10062000049A0A2A05D931232B706B702B23AB70E7
:100630000CE0049A2023AB700A2A03D131232B70DB
:10064000302302E02B70049B30336B709E233722E3
:100650005B0000271B1B009201970322301C291C02
:1006600001F0B3FE049A2423FF330A2A1CD8101C7D
:100670006022009200221B1B019203F031F9060652
:10068000060909090D0D11111100301C174905E06B
:10069000301C174908220EE01649301C06220AE0D9
:1006A000301C1549092206E06022144900921B1BE8
:1006B0000197301C072201F088FE01F05DFB11B0AC
:1006C000F0BDC04674430000A4000020DD5B0000C4
:1006D000FA5B0000FC5B0000FF5B0000015C0000B7
:1006E000035C0000065C0000315C0000085C000058
:1006F0000F5C0000185C00001F5C0000295C00001B
:1007000008B5034B1868034B1B68984708BDC046E3
:10071000D8000020F0000020024A01231370024A92
:10072000137070470500002004000020024B1A6877
:1007300005321A607047C046540A002008B5C0212F
:1007400001220A4802F05CFD094B186802F03CFBEC
:10075000084BFA211A68890052181A60064B0022C9
:100760001A70064B186802F02FFB08BD00A000406D
:100770005C0A0020540A0020D1000020580A002002
:1007800013B51B4B1B481A68C02102F039FC041E2C
:100790002CD0194B00211868184A194B009102F00F
:1007A00027FA631EDBB2012B0BD8164B1B68002BFC
:1007B00011D1154B012C01D11C600CE001225242D9
:1007C00008E0042C02D10122524202E0032C02D1A3
:1007D00001220E4B1A600E4B012119700D4B322273
:1007E0001868002300930C4B02F002FA13BDC046B8
:1007F000540A002000A000404C0A002060EA0000DB
:100800003D070000D4000020EC000020E80000209C
:1008100005000020580A00201D08000010B5264CD5
:100820002378002B46D1254A1368002B20D0244B77
:1008300011681868411819601968103101DA20210F
:1008400019601968202902DD1021494219601968D0
:10085000102905D01968202902D01B68002B05D16A
:1008600000231360174B186802F0AEFA01232370BF
:10087000154A1368002B1DD0144B116818684118D5
:1008800019601968103101DA1021196019681029EE
:1008900002DD1021494219601968102902D01B6835
:1008A000002B05D100231360064B186802F08CFA68
:1008B0000123237010BDC04605000020E800002081
:1008C000D4000020580A0020EC000020E0000020A6
:1008D000F0B593B0AE4B0EAC0294221C13CB13C2F6
:1008E0001B68AC481360012100F0A4FB0220012426
:1008F000021C0821012300F0C1FD02200821002272
:10090000231C009400F076FDA34FC0200225400078
:100910003D502A1C3D60281C0921231C00F0AEFD1F
:10092000281C09210022231C009400F063FDC02133
:10093000402349007B5004213B600A1C0320002314
:1009400000F09CFD954B1022DA6703202A1C05213C
:10095000231C00F093FD032005210022231C00949A
:1009600000F048FD8E4B102025220025D8676A44F0
:100970002623157009A96B44272029220D701D70AC
:1009800068441F230AA96A440370864E0D701570CF
:10099000291C09220BA803F0D0FC8348211C00F07D
:1009A00049FB301C09A900F09FF92D2009220423DE
:1009B00068440CA90A7003700BA9301C00F0B2F94E
:1009C0007A4B10207363736923437361C0235B0008
:1009D000F850386002F0C0F8754802F069F87548C0
:1009E00002F066F8744F381C02F062F8734802F0A7
:1009F0005FF8FFF727FC0EA801F03AFF822170484C
:100A000002F0CAFDC02105906D4802F083FA431E32
:100A10009841C0B22B1C05992A1C0490FFF72CFCAE
:100A2000C021221C664802F0EBFBFA223868654BB5
:100A30000095211CD20002F0DBF8634B03941C707C
:100A4000624B02941D70624B1B78002B2DD0614BC2
:100A500000221A7001227260191C0A78002A06D13D
:100A60005D4B04201A6982431A6130BFF5E7822189
:100A700008AA09AB5248776A02F060FD6A460BABE0
:100A80004F48C0211E3202F071FA514B0025039CE1
:100A90001D70AF231B01AC4202D0BB426D41EDB2D1
:100AA0000024BB426441E4B20394484B464C1A789C
:100AB000D2B2002A22D0494F3B78002B09D0FFF751
:100AC0005FFE474B1B68980601D4FFF759FE0023D1
:100AD0003B702378002B57D0424B089A1868424B42
:100AE00009991B6800936B461E331B880195FFF71D
:100AF0003DFC314A0023237010683EE02178002934
:100B000042D00B992270002902D0029C002C03D005
:100B1000364A1278002A20D00127C0210022284816
:100B20001F7002F06DFBC0213A1C254802F002FA4A
:100B30001F4B00241868211C2D4A2E4B009402F0F4
:100B400057F81C4B391C186805222B4B009402F0F7
:100B50004FF81D4B1F70254B1C70029C0B9A04987C
:100B60002240531E9A41D2B22B1C0599FFF784FBF9
:100B7000114B0B9C186802940023FA220093012168
:100B8000D200104B02F034F8002000F00DFC5AE7C0
:100B9000645C00000072020000E100E004600040BC
:100BA000006000400020004000A202007C1F000006
:100BB0004C0A00205C0A0020500A0020580A00203D
:100BC00000A000401907000005000020D10000200F
:100BD00004000020DC00002000ED00E0D000002038
:100BE00088600040D4000020E0000020E4000020E5
:100BF00060EA00003D0700002D070000034B9A69E2
:100C00001A62034B01221A707047C0460020004050
:100C1000DC00002037B5114B802252001A62104BC5
:100C2000104D1A68002A01D101222A601B68202B6E
:100C300002D101235B422B600B4B01241C700B4B38
:100C4000211C1868002300933222094B01F0D0FFC9
:100C5000084B2A681A60084B1C7037BDFC600040C6
:100C6000D40000200000002005000020580A0020C9
:100C70001D080000E8000020E4000020064A9369F7
:100C8000990502D5054901200870990602D5044945
:100C90000120087013627047FC600040E4000020EF
:100CA000D000002030B585B00C4B141C18600C4BE4
:100CB00003A8196001F0FCFEFA20211C800002F05C
:100CC00019FE039D0024021C0094281C0121054BE1
:100CD00001F08EFF201C05B030BDC046F0000020A2
:100CE000D80000200107000010B50A2343600A78ED
:100CF0004B7812061B0113438A78CC781343FE22EB
:100D00002404D20322400C791343FE222402D20190
:100D1000224013434A79002A01D00822134303607A
:100D200010BD000070B58C780222031C4260062CB6
:100D30003BD8201C02F0D4FD040F162439393100B1
:100D4000586B2C4AFE2510402B4AED015668354061
:100D50000543506810E05D6B264A1540264A5068EE
:100D6000526813E0586B234AFE251040224AED01D9
:100D700096683540054390687F2210402A1C12E097
:100D80005D6B1C4A15401C4A9068926852024000F4
:100D9000520E400E2A43000205E0174D586BED68D5
:100DA0007F2290432A4002435A6348780A7800051C
:100DB0001207024308792404000222430243C87840
:100DC000000102438879002802D0802040040243B9
:100DD000C879002801D0042002434879002801D0B6
:100DE00002200243097A002901D001210A43DA6076
:100DF00070BDC0468080FFFFB081E00F054907222B
:100E00004B68181C1040012802D893430122134359
:100E10004B60704700000C4010B50949094A44185E
:100E2000094953688C4204D807218B4301210B43A5
:100E300004E00649884201D807218B43536010BD66
:100E4000FFDB0BFF00000C40FF23F4000024F40044
:100E5000104BE0225B69D2008021134089008B4255
:100E600016D007D8002B0FD08022520093420DD10C
:100E700009480EE0C02189008B4203D0934205D17E
:100E8000064806E0064804E0064802E0002000E0CC
:100E90000548704700800C40C0D8A700406F400153
:100EA00040420F00809FD500C0CF6A00034B5A6DAF
:100EB000D10702D41A6D0242FCD1704700800C4069
:100EC00008B5104A4300916AD9400B1C03210B401E
:100ED000022B06D08B4207D0012B09D102F0F3FC84
:100EE0000FE002F0F7FC0CE002F0DCFC400808E048
:100EF000936A04308000C3400020834201D002F096
:100F0000E5FC08BD00800C4000B5021C0006000F87
:100F10000138012303281CD802F0E2FC0205090F66
:100F20000D4B9A6801E00C4B5A680F230BE00B4BFA
:100F30009A420DD1084B9A6EF7E7094B9A4207D1B6
:100F4000054B1A6F0323134001229A40131C00E043
:100F50000123181C00BDC04600800C40300408006E
:100F60004005140010B5031C0006000F01380C1CCE
:100F7000032858D802F0B4FC02132A41802212063A
:100F80000023144202D101335208FAE7264A1F20F7
:100F90009168C31A0F2081430B43936043E0FFF72E
:100FA0002DFF802212060023144202D10133520881
:100FB000FAE71D4A1F205168C31A0F2081430B43D3
:100FC000536002F06FFCFFF727FF2CE0174A9342B3
:100FD00029D10420FFF76AFF802212060023144261
:100FE00002D101335208FAE70F4A1F20916EC31A4B
:100FF0000F2081430B43936615E00D4A934212D1B3
:101000004020FFF753FF802212060023144202D132
:1010100001335208FAE7044A1F20116FC31A032054
:1010200081430B43136710BD00800C40300408005F
:101030004005140070B5051C0005000F01380E1C9A
:10104000052823D802F04CFC031206090C0F0020DF
:101050000F4C0DE000200F4C0AE001200E4C07E081
:1010600010200E4C04E000200D4C01E00D4C00203F
:10107000ED03ED0E002801D0FFF718FF23680122D1
:10108000AA409343AE401D1C3543256070BDC04649
:1010900008800C4040800C4058800C4060800C4020
:1010A00078800C4044800C4000B50F231840013874
:1010B000002303283ED802F013FC021627381E4BEB
:1010C000DA6AF0239B0113408022520193422ED012
:1010D0008022920193422CD018495B185A42534106
:1010E0000522D31A26E0144A0321936A0B40022BEF
:1010F00020D08B4213D0012B01D10B1C1AE0926A35
:101100000923D10316D410E00B4A0C23916A0B403B
:10111000082B0ED00C2B02D0042B02D107E00623A3
:1011200008E0926A0923D10204D4012302E00323D8
:1011300000E00223181C00BD00800C4000F8FFFFF7
:1011400008B5F8239B03184080231B0398422ED038
:1011500011D880239B02984221D002D8002840D089
:1011600045E08023DB0298421ED0C023DB02984278
:101170003DD1002024E0A0235B03984223D005D872
:1011800090235B03984232D1012019E0C0235B0316
:1011900098421FD0D0235B03984225D027E002F06D
:1011A00035FB144B9A6807E002F07CFB20E000203E
:1011B000FFF786FE0F4B9A6E0F231340D84017E0BF
:1011C000FFF77EFE14E00120FFF77AFE094B1A6F4D
:1011D0000323F2E70848FFF767FF072804D0082831
:1011E00005D102F013FB03E0FFF732FE00E0002020
:1011F00008BDC04600800C400400180010B504284B
:1012000021D802F06DFB0C09110306000120022316
:101210000CE01020202309E04020802306E08020FD
:10122000802340009B0001E004200823064C002995
:1012300006D02062002A04D0E26A1A42FCD000E004
:10124000236200F0CDF810BD00800C4010B50F24D3
:101250000440012C04D0002C5DD0032C25D95AE089
:10126000881E072857D802F03BFB0F06090C56567C
:101270005604032000E00120032407E00220041CA0
:1012800004E00320012401E00020042401210A1CC1
:10129000FFF7B4FFFFF7B2FD1F4B5C6200F0A0F850
:1012A00002F000FBFFF7B8FD35E0481E082832D8F1
:1012B00002F016FB05070E31311531311D000023F8
:1012C00013E0012100200A1CFFF798FF02230CE025
:1012D0000120011C021CFFF791FF012305E00F4BC9
:1012E000042219680A431A600323002201E0002344
:1012F00001220949022C06D18C6A094812042040B7
:101300000343134306E012059B001343886A054A12
:10131000104003438B6210BD00800C4040800C40A5
:10132000FCFFFEFFF3FFEFFF30B51B480122C46F47
:10133000AA211440194A1A4BC2671A4A4900128856
:10134000802511401962F021890111406D01A942E7
:1013500008D08025AD01A94209D080252D01A942E0
:1013600010D109E0D96A0D06FCD5032508E0D96A39
:101370008D05FCD5042503E0D96A0D07FCD50225AF
:1013800007494D62D10701D402221A62002C01D014
:101390000023C36730BDC04608800C400E580000D3
:1013A00000800C40F400002010B50A4B0A4ADB6AAA
:1013B00004249BB21380094A11692143116130BF93
:1013C000002802D0FFF7B0FF03E05A0501D402F075
:1013D00069FA10BD00800C40F400002000ED00E030
:1013E000024BDA6A024B1A807047C04600800C40FC
:1013F000F4000020F7B508AC247801941B4C0729B1
:101400000AD88D0067680F26AE40A840B743051C78
:10141000381C284360600BE00D1C083DAD00A76838
:101420000F26AE40A840B743051C381C2843A060D7
:101430000F4F012538688D4084466646E8430640D4
:101440008A4032433A600B4A17680740BC461F1C6B
:101450008F4063463B431360074B25621A68104078
:10146000019A8A4010431860F7BDC046FC600040F6
:10147000086100400C61004010610040F0B5002A96
:101480000CD0012524248D404443002B03D01B4E57
:10149000A419256102E01A4EA4196560242444436E
:1014A00007290CD8154D0F26641967688D00AE40CA
:1014B000B743161CAE403D1C354365600DE00F4E32
:1014C000A419104EA7688D19AD000F26AE40B74382
:1014D000161CAE403D1C3543A560002A0CD10124EA
:1014E00024228C404243002B03D0044BD2181461B9
:1014F00002E0034D52195460F0BDC0460060004048
:1015000010600040F8FFFF3F70B5041C151C1E1C46
:10151000002A1BD002680E4B13400360036832029E
:1015200013430360002903D10A48FFF709FE011C99
:10153000094BA800081A995D694302F0DBF923689A
:101540009A0702D5002800D10120206170BDC04655
:10155000FFFCFFFF10810200745C000070B50023E7
:1015600043630C4B022203630368012693434A78CA
:101570000D1C7240B240134303600B7BAA6849689C
:10158000041CFFF7C1FF23682A78B3431343236089
:1015900070BDC046CFFF0100F0B5894A904200D02F
:1015A0000AE1884B9E681F785C881979C020956A8B
:1015B000C00005420AD019715C80FD21A80500D544
:1015C000EAE0690500D4E8E0FE21E5E0082F00D953
:1015D000DFE0381C02F084F9051B424F677697ABB9
:1015E000D300708819715C803188C40604D5062048
:1015F000090A0140F02004E0FE242140850701D5BE
:10160000012001430120187051625060C7E0802022
:10161000054200D07AE040273D4201D101207FE021
:101620001763778802256648AC46FD0606D5197112
:101630006146197031785C804162B0E065462F42A6
:1016400073D05C8019710724C9001C707618318929
:10165000012900D0A3E008214160A0E080200542DC
:1016600054D1402702203D425AD075881763032782
:1016700005429BD159E05C80748819713188E0067D
:1016800005D50620090A0140F020014301E0FE20B3
:1016900001400420044201D001242143187001209C
:1016A000506051627BE0802005422FD1402704200A
:1016B0003D4235D075881763054236D019715C807C
:1016C00007216BE0C80030180589A54213D874883B
:1016D00001310420C9B2204002D00024032765E76D
:1016E00001252C4002D05880197138E0012900D81A
:1016F0005CE75C80F8E719714168601C095D5880FF
:10170000516206214AE08020054205D01971FF216F
:101710005C801063597022E04020054204D106200D
:1017200018705C8019713AE0106305273EE70720C6
:1017300018705C801971AC0631D5C90076183089F3
:101740005C88D569844203D27168661C5E800D5541
:101750005988814208D3012801D10821516008210C
:101760001970022151601AE004245460012816D037
:101770000138814213D11249082048600FE01971E5
:1017800080210820490018705C800D4207D0116349
:1017900003E019715C80FB215970092119701978D7
:1017A0000120092909D10021516301229A56824260
:1017B00000D15970587800E0FC2040B2F0BDC0461E
:1017C00000A00040F800002010B5174B984201D04F
:1017D000FC2026E09A68D00701D520225A604A886A
:1017E000900702D508890028F2D0500702D50A8A4E
:1017F000002AEDD00D4A00200124107110705470A1
:1018000050809160C0225A609A6A910601D5064ABA
:10181000D269074A04481A63FC22D2005A63FFF7D0
:10182000BBFE40B210BDC04600A00040F800002042
:10183000CFFF0100002804D0012805D1034BD86850
:1018400003E0024B986800E0002070470000084069
:10185000002803D0012803D1024B00E0024B19609D
:101860007047C0460C00084008000840034B0121A7
:101870001A688A43104318607047C0460000084049
:10188000034B002802D001221A6200E01862704760
:101890000000084042780378002A01D00222134356
:1018A0008278002A01D004221343014A1360704752
:1018B0000000084008B50020FFF7D8FF0120FFF71F
:1018C000D5FF08BD38B5051C141C081E02D10748F9
:1018D000FFF736FC631E40001818211C02F00AF8BE
:1018E000034B800140381840686138BD1081020008
:1018F00000FF1F000A4B0B4AC360002303604260D5
:10190000094A83604361C3648264084A4365904224
:1019100000D103658365904201D10023C365704700
:10192000AA0E000005100000F91F000000C40040CE
:1019300038B50D1C041CFFF7DDFF2B8A0122134371
:10194000AA7B2168501E824192020B4313432360FD
:10195000AB7C21685A1E93412A7D1B01501E824197
:1019600052070B43134323602A7B80235B011343FD
:101970006360201C6968AA68FFF7A4FF6B7B002BDB
:1019800001D01023E3602B78E36038BD03695A0669
:10199000FCD54163704703695A06FCD5C1637047A3
:1019A000044B1A780123002A02D0034B0360002362
:1019B000181C70474401002038010020F0B5051CB8
:1019C0000C4804780120002C13D00B4CAE1827884B
:1019D0000420BE420DDC6788CE18BE4209DC05201B
:1019E000002A06D0002B04D0A580E18022816381EB
:1019F0000020F0BD4401002038010020F0B587B080
:101A00000093554B03921A780123002A00D19FE0DE
:101A1000524A1568002D00D19AE0514A009E54891F
:101A20001389641A5C430323241AA64200D98FE069
:101A30004C4B5C7C002C00D089E09B680294DB0856
:101A40000493D388C918049B89B24B43EB180591C2
:101A50000193009D002D78D0414B009E1D892D1AC9
:101A6000B54200D9351C9F88009EC719761BBFB2AE
:101A7000072300961F4203D11C4201D19D422FD85B
:101A8000EE19231C3A1BD21892B2B24246D2039DE1
:101A9000D910685C01211841084032490D7CD108F9
:101AA000002D02D1002804D10EE0012D0CD1002818
:101AB0000AD10720019D0240012069189040021CB4
:101AC000087802430A7009E00720019D02400120C6
:101AD00069189040021C0878904308700133D1E7E0
:101AE000019E0398FF08F719E110EE084118321C17
:101AF000381C02F019FCF300ED1AE318002D0DD08C
:101B00000122039CBE19D810AA403178205C013A0A
:101B1000D2B291430240114331705B19029D059E80
:101B20001F24A8194111104A204001248900844033
:101B30000135201C02958C58019D049E2043AD194F
:101B40008850019500201C1C83E72B1C00E00A2311
:101B5000181C07B0F0BDC046440100200801002059
:101B6000380100200C010020600A0020F0B587B089
:101B7000021C504804780120002C00D198E04E4C03
:101B80002468002C00D193E04C48457C002D00D007
:101B90008DE08568007CED080395012801D058424E
:101BA0004341581E8341DBB205935B42DBB2029393
:101BB000434B039EDB880025C91889B24E4304912C
:101BC000A61901950D9D002D6FD03D4B0D9D1C89D3
:101BD000A41AAC4200D92C1C0D9D2D1B0D959D887F
:101BE0005519ADB2072C21D80598641900280ED0DC
:101BF000A54245D207222A40EB080121F318914063
:101C00000A1C197801350A431A70ADB2F0E7A542F3
:101C100036D207212940EB080122F3188A40111C13
:101C20001A7801358A431A70ADB2F0E707232B40CA
:101C3000ED087519002B0CD001229A402878013A42
:101C40000299D2B2914302400A43083B2A70E41839
:101C50000135E70807D0281C02993A1C02F06DFBF9
:101C6000FB00E41AED19002C0AD00123A3401C1C30
:101C7000013C2B780299E4B2A3430C401C432C7026
:101C8000019D04980F4B29184A111F209200014012
:101C90000120D5588840011C2943019DD1500135B0
:101CA0000195039D002276198CE7281C00E00A208C
:101CB00007B0F0BD44010020080100200C01002005
:101CC00038010020600A002070B50A4C051C0A4843
:101CD000231CC26841688669B04722680B20002A2D
:101CE00006D02A600548FF21102202F026FB0020C2
:101CF00070BDC046080100200C010020600A0020D1
:101D0000F7B5194E0020337883422BD100F0AEFB9B
:101D1000002827D1154D291C00F0BEFB002821D139
:101D2000134F381CFFF7D0FF041E1BD13B680B205C
:101D3000002B17D0EA68696890B28FB2021C7A4310
:101D40000C4B211C588058811F809C80DC801F8197
:101D500001233370201C01920094221C231CFFF7E6
:101D600005FF201CFEBDC046440100200C010020E0
:101D70000801002038010020F0B585B0234B002475
:101D80009B680126DB080293214B271C1D681F4816
:101D9000E319C2680393934220D201222A4001D062
:101DA000013412E0002C0FD0029B1A497B430968D2
:101DB000C918436800970194046AA047002823D1FA
:101DC000039F041C013700E00137E3196D08DA06B0
:101DD000DDD10F4BB200D5580136D8E7002C06D123
:101DE0000B480021102202F0A8FA00200CE0029B10
:101DF000084A7B4311680022C91843680097019480
:101E0000046AA0470028EBD005B0F0BD0C0100200B
:101E1000600A002008010020F7B5051C0C1C0028F2
:101E20002ED000292CD00F688A680420974228DA27
:101E3000E36849680193994223DA2E68B0888446A2
:101E4000032067451DDBF38899421ADB33899342EF
:101E500017DD7689019B9E4213DD89B2B8B2CB189B
:101E600082180132013392B29BB2FFF7A7FD2168BD
:101E70006268A368E468E960AC612A616B6100E0B4
:101E80000520FEBD30B587B00524051E1CD00023FB
:101E900043600F4B836001A8FFF782FD041E13D13E
:101EA000019B02901A882B605B880390013A013BEA
:101EB000281C02A904920593FFF7AEFF041E03D16C
:101EC000281C044900F0C2FA201C07B030BDC046EF
:101ED000FFFFFF00785C000008B5031C0520002B05
:101EE00006D01B6800201A88011C5B88FFF766FD7E
:101EF00008BD37B50521041E13D04568FFF7ECFF78
:101F0000011E0ED120682A0C2B0AEDB200954489DF
:101F10000089D2B26043DBB20190081CFFF726FEB5
:101F2000011C081C3EBD10B5040C0C70010A117098
:101F3000187010BDF7B50524051C0F1C161C0028D1
:101F400012D00C3000F098F9012400280CD0AD68B4
:101F5000B8B22A0C2B0AEDB20194B1B2D2B2DBB204
:101F60000095FFF703FE041C201CFEBDF7B50524F9
:101F70000F1C161C1D1C002811D00C3000F07CF921
:101F8000012400280BD02A0C2B0AEDB20194B8B220
:101F9000B1B2D2B2DBB20095FFF7E8FD041C201C01
:101FA000FEBD10B5031CDC680120A14200DB00204F
:101FB0005C69C0B2A14201DD0221084399698A42ED
:101FC00001DD042108431B699A4201DA0823184302
:101FD00010BDF0B585B0171C1C1C002831D002695B
:101FE000012397422EDB826997422BDCA14202DD5E
:101FF0000B1C211C1C1C46690123B14222DCC26857
:1020000094421FDB0D1E954200DA151C69466A4694
:102010006B4680680D310E320F33FFF784FFB9B283
:102020006F46FF7B6B465A7BA8B29B7B0097B442FE
:1020300000DD341C641B01340194FFF797FD031C81
:1020400000E00523181C05B0F0BDF0B587B0051EF3
:1020500049D0C0680124814246DB6869814243DC83
:102060009A4202DD101C1A1C031CA869012482423A
:102070003ADC2E69B34237DBB24200DA321C8342CB
:1020800000DD031C9B1A0133039388B29BB291B20B
:102090000122FFF793FC041E26D16F466E461537CA
:1020A00016366B46A868391C321C1733FFF73BFF06
:1020B0006846C17D3A78337800910399201C0191DC
:1020C000211CFFF753FD041E0ED16B69A889298AD4
:1020D000C218AB690132CB18013392B29BB2FFF741
:1020E0006DFC041C00E00524201C07B0F0BDF0B519
:1020F00087B003900D1C141C01930C9F002869D01D
:10210000994203D13B1CFFF7A0FFB3E00398BC4208
:1021100003D1019BFFF75DFFACE0FFF742FF0199A0
:1021200004903A1C0398FFF73CFF002605900296A6
:10213000059B04990B43DBB2002B4DD0059A0B1C79
:102140001340DBB20120002B00D093E0131C0029C8
:1021500000D00B1C034209D0039B019ADB68029359
:1021600002993B1B481B5843511B09E099070BD5AB
:10217000039A3B1B5269501B5843019B0292591B07
:1021800001F006FC261811E0590702D5039A96695A
:1021900003E01A070AD5039B1E690199301B4B1BEC
:1021A0005843391B01F0F4FB28180290049A039855
:1021B0000299002A06D0321CFFF7F3FE341C04906B
:1021C000029DB5E7321CFFF7ECFE029B0590371C21
:1021D0000193ADE705204DE03B1BA74200DCE31B6C
:1021E00001996A1AA94200DD4A1B934202DC0022CF
:1021F000049207E0019B01971F1C2B1C251C1C1C33
:10220000012304930199A94205DA231C3C1C1F1CDD
:102210002B1C01930D1C019AE31B521B0292059388
:10222000A74201DD391B0591029AD60FB618761028
:102230007642A74201DB012714E001277F4211E02B
:10224000049B0398002B11D0211C2A1CFFF772FE5F
:1022500000280FD105997618002E02DD029AE419A4
:10226000B61A0135019B9D42EADD02E0291C221CC1
:10227000ECE7002007B0F0BD10B5031E10D01C68BD
:102280000020A1420CDB9C68A14209DC59688A420B
:1022900006DBDB68D00FD91793424841C0B2FFE795
:1022A00010BDF0B587B004930CAB1B78041C0392EF
:1022B000059300D186E00D1C203DEBB202205E2B81
:1022C00000D980E0231C28331B78ADB2834209D1AA
:1022D0003A2906D00B25202904D00D1C303DADB283
:1022E00000E00A25238C0220AB426CDDE069002768
:1022F00002900197A31DDB7F019883425FD9E31C05
:10230000DB7F012B05D0022B08D102986B001B5AF2
:1023100007E0029A525D0092002619E0029AAB0093
:10232000D35A0093F8E7009BDB0716D50398049B6C
:10233000811901981A18201CFFF7FCFD012842D8CA
:1023400043424341FF180098013640080090B6B25E
:10235000631DDB7FB342E6D811E0059A002AF2D074
:10236000039B04989919019BC218201C6368FFF70E
:10237000FDFDE3E7059A002A09D10136B6B2631DD7
:10238000DA7F0333DB7FD3189E42F3DB0EE0039B3F
:1023900004989919019BC218201C6368FFF7E6FD99
:1023A000012810D843424341FF18E6E7231DDB7F95
:1023B000ED18019BADB201339BB201939AE77842CD
:1023C000784100E0052007B0F0BDF0B587B0039379
:1023D0000CAB041C01CB1B780593002C33D00029D7
:1023E00031D0231C28331B780220002B2CD08A18D4
:1023F000039E0D1C049200270498854220D0297862
:102400000A2909D1A31DDB7F0C99039ECA18E31D7D
:10241000DB7FD3180C9311E0059B201C0093321C2A
:102420000C9BFFF73EFF01280ED843424341FF18A3
:10243000631DDA7F0333DB7FD318F6180135DBE742
:102440007842784100E0052007B0F0BD08B50028CB
:102450000AD01C301022002902D101F06EFF03E0E7
:1024600001F062FF002000E0052008BD10B5084B18
:102470001C78002C01D0002009E001221A70054BC5
:10248000E358002BF7D0984704340028F7D010BD4C
:10249000780100200800002008B50A4A0B1C1278B9
:1024A000002A0AD000280ADC2C22504306490918C9
:1024B000181C01F039FF002002E0044800E0044845
:1024C00008BDC046780100204C01002005001180A5
:1024D0000200118008B50B4B011C1B78002B0DD09E
:1024E000094A1368002B0BDC581C10602C22534344
:1024F0000648C01801F018FF002002E0044800E080
:10250000044808BD78010020480100204C0100204B
:10251000050011800100118070B5802910D1094992
:10252000094D0C68802612013601A218AD19002051
:10253000AA4202D91860054803E01C600A6000E066
:10254000034870BD100000207901002001001180B7
:1025500002001180004870470400118008B500F0A7
:1025600031F900F0EDF8002008BD70B500240E1C14
:102570001D1C20013018AC4205D00021102201F0B2
:10258000DCFE0134F5E7002070BDF7B504200F1C18
:102590000B2100F043F9062000F019F9089E6D4662
:1025A0000136B6B20635012233021343281C02213C
:1025B0002B8000F0E7F80024099B200138189C428A
:1025C00015D0102100F0DEF8099B013B9C4202D19E
:1025D00001235B4204E0731C1B191B02FF221343FF
:1025E000281C02212B80013400F0CCF8E4E7022003
:1025F00000F0EDF80B21042000F01EF90020FEBDD4
:1026000008B50A21042000F025F9002008BD08B50E
:102610000821002000F002F90A21002000F0FEF855
:1026200008BD10B50C1E02D0FFF7F1FF07E0081C33
:102630000A2100F001F9201C082100F0FDF800201B
:1026400010BD000030B58DB000F0BCF800F078F897
:1026500000F0CCF80022131C0F21022000F0D0F86B
:102660000022131C0721032000F0CAF80022131CCB
:102670000B21042000F0C4F800200821021C031CD8
:1026800000F0BEF800200A21021C031C00F0B8F87C
:102690000020011C021C031C00F0B2F80022131CD5
:1026A0000A21042000F0ACF81D480021402200F06F
:1026B00093F8041E30D11B4A01A801920122027432
:1026C00080224260C2608260174A44744261174AA5
:1026D0008261174AC261174A0262174A4262174A68
:1026E0008262FFF7F7FE041E16D1FFF790FF0B2161
:1026F000042000F093F8062000F069F868460221F3
:1027000002300425058000F03DF8022000F05FF85B
:10271000281C0B2100F090F8201C0DB030BDC046E5
:1027200001260000A85F00002326000019250000F4
:10273000552500008B2500006B2500005D2500005D
:1027400030B587B00A4A6B4623CA23C323CA23C3C2
:10275000084D09480121FEF76DFC084B281C69460D
:102760000293FFF7E5F8064B00206B6507B030BD1C
:10277000C05F000000C4004000320200E067350086
:102780000A03000038B5041C0D1C002D11D0012DCA
:1027900001D0E20706D521780948FFF7F7F8013D97
:1027A0000134F2E721880648FFF7F5F8023D0234CC
:1027B000EBE7034B1B699A06FBD5002038BDC046EA
:1027C00000C4004008B500F001FF002008BD08B5B6
:1027D00000F0DCFF002008BD08B5FEF763FA002812
:1027E00000D0014808BDC0460200138008B5034868
:1027F0000121FEF71FFC002008BDC0460072020048
:1028000010B5141E05D1C0B20422FEF737FE201CFD
:1028100000E0014810BDC0460100138001238B4039
:10282000191CC0B224235843024BC0180161002078
:102830007047C0460060004001238B40191CC0B2A5
:1028400024235843024BC018416000207047C04603
:102850001060004001238B40191CC0B22423584350
:10286000024BC018816100207047C04600600040E4
:1028700010B50121041C1248FEF7DCFB11480121B0
:10288000FEF7D8FB04200D210A220123FEF7F6FDF6
:10289000012304200C210A22FEF7F0FD09230A4936
:1028A000802292010A600949013B0A60002BF6D19F
:1028B0000748084A211C8263FEF750FE10BDC0463F
:1028C0001081020000B20200A0600040A46000403D
:1028D00000A000400306000010B5011C0748FEF7E9
:1028E00073FF074C40B2012806D1013C002C03D0F5
:1028F0000248FEF751FEF5E710BDC04600A00040BB
:10290000E193040072B6044B1A68511C01D00132E5
:102910001A6018687047C04604010020054B00206B
:102920001A68824204D0501E1860002800D162B696
:102930007047C04604010020F7B525490190081CE6
:1029400014300B7F002294464A7793423AD00A68AB
:102950004B68019C6546634501D1A24204D9121B14
:10296000AB410A604B602DE0CE7F002E01D10E7787
:1029700023E08E68CF6892197B41121BAB410A603D
:102980004B60031F1B680268002B06DD9B18036069
:10299000F32B12D90122002306E0D31A0360F32B94
:1029A0000BD901225242D3170E684F6892197B410E
:1029B0000A604B600368F43B03608F69002F01D00D
:1029C00001234B77034A283128309142B9D1F7BD12
:1029D00080090020200A002010B50024282363432A
:1029E000064AD3185A7F002A03D0196A201C9B6913
:1029F00098470134042CF1D110BDC0468009002055
:102A000082B0064B596809025A680192019A120273
:102A1000521A120A8242F7D302B0704700000840EF
:102A2000F8B51D4B01241E1C6442A036221C197FE0
:102A3000002908D059681D688A4202D803D1AC42E7
:102A400001D92C1C0A1C2833B342F0D1134E0023A9
:102A50003370631C01D1531C1DD0002A02D1104BCE
:102A60009C4200D90E4C0F4B1A780F4B002A03D111
:102A70000202120A1A6000E018600C4D04190227C5
:102A80002102AF61090A0020FEF7E2FE0123337044
:102A9000EB691F43EF61F8BD800900207909002030
:102AA0009BFFFF007B090020240A00200000084053
:102AB00038B5051CFFF726FF002328225A43094991
:102AC0008A18947F002C01D00133F6E7002D03D043
:102AD000012191772B6000E0034CFFF71FFF201CC2
:102AE00038BDC04680090020041000F0000000003E
:102AF00038B5430CC20311490F4880185941104A98
:102B0000104B00F0A7FF041C0D1C002D07D010482F
:102B1000FFF776FF0C4A0D4BA4185D41F5E70C4B0F
:102B20009C42F4D8002C02D0201CFFF769FF002043
:102B300038BDC046C046C046A00F000000000000DF
:102B4000401F000000000000650000FFFFFFFFFFC6
:102B50009BFFFF00C046C04638B51A4B1C78002CBE
:102B60002ED101251848291C1D70FEF763FA17485D
:102B70000221FEF76BFB16480821FEF7F3F9291C2A
:102B80001348FEF757FA1348FEF784FE124B07224C
:102B9000D9699143D9619A61FEF78CFE0F4B80226F
:102BA000C0215201A9405A500D481A60211CA02290
:102BB00001F0C3FB0B4B1C700B4B1C700B4B1C60D0
:102BC000002038BD7A09002000230400020006001E
:102BD00030040800D85F00000000084000E100E079
:102BE000800900207B09002079090020200A0020AC
:102BF000F0B585B001900391151C1F1C032800D966
:102C0000C2E0FFF77FFE019928244C43644B1C1956
:102C1000A37F002B03D1FFF781FE6248B5E0002DB2
:102C200008D1002F02D001980A99B847FFF776FE25
:102C30000020AAE05C4E6B0C726856495448029220
:102C4000EA0380185941A761534A544B00F002FF30
:102C5000039BA060E160012B08D1FA239B005D4338
:102C6000F42358437A23281A20616361019C2821A8
:102C700061434B480122002341188C68CD6812192A
:102C80006B410A604B60494B039D0A9C1B780122F3
:102C90000A77CD770C62071C002BC7D1444C236800
:102CA000013302D023689B182360424B1A78002A14
:102CB00020D1029D28202A02019D3F4B6843120A21
:102CC0001A603F180223B3610ACF002B02D13B4B9D
:102CD000994200D93949029D002069180902090A60
:102CE000FEF7B6FDF36902221343324DF36101236F
:102CF0002B7041E02368012B3ED1019D28226A43BD
:102D00000023BA1813770393F369022293432A4DE1
:102D1000F3612A680299881A00022949000A4318B7
:102D20005A1E93415B421840FFF706FEFFF754FE20
:102D3000039A002A05D1019928234B430122FB184D
:102D40001A77039A029801320392FFF769FE7368BB
:102D5000296802935B1A1B021B0A00200093FEF7EE
:102D600069FD2B68134DC01A2B780002000A002B56
:102D700002D0009D8542C7D82368002B00D155E7BB
:102D80002368013B236051E70E4805B0F0BDC04603
:102D9000A00F000000000000401F00000000000025
:102DA00080090020031000F0000008407B0900208B
:102DB000200A002079090020240A00209BFFFF0040
:102DC000010000FF021000F010B5041E032C13D800
:102DD000FFF798FD28235C43084B1B1918339A7999
:102DE000002A03D1FFF79AFD054806E000241C7174
:102DF000FFF794FD201C00E0024810BD8009002070
:102E0000031000F0021000F0F8B5194DFFF77AFD3D
:102E10002B699A0728D5174B01226C681A70EB6949
:102E200002229343144EEB613368E01A0002000A59
:102E3000FFF782FDFFF7D0FD201CFFF7F1FD6C6866
:102E400032680020A71AFEF7F5FC33683F02C01A6B
:102E50000A4B00021B783F0A000A002B01D0874270
:102E6000DDD8044A00231370FFF758FDF8BDC046B3
:102E7000000008407B090020240A00207909002076
:102E800030B587B001A81D1C042343806B46012484
:102E90001A7000AB43600481C56004820180FFF7B3
:102EA0001BFD002802D0FF232B70041C201C07B040
:102EB00030BD00B589B003A801800121418002A97D
:102EC0004B700223038101ABC36000234160038286
:102ED0000A70FFF701FD09B000BD30B58BB005A841
:102EE00001800121418002A90A7000229A4206DA7B
:102EF0000E9D0132AC18013C24788C54F6E7013366
:102F0000038101ABC360002341600382FFF7E4FC4F
:102F10000BB030BD08B5064B197118600021181CA4
:102F200000F0EBF9C0B247384342584108BDC046F3
:102F3000280A002008B5031C04480171036003211E
:102F4000002A00D0012200F0CDF908BD280A002097
:102F500010B5054B141C197118600321181C00F0E2
:102F6000CCF92060002010BD280A0020F7B5234CC2
:102F70001D1C00232B60161C01AA21712060FFF785
:102F8000E7FF019B002B15D02C21201C00F0B5F988
:102F90002D21071C201C00F0B0F900020743381C4B
:102FA000323080B2642100F0A5FC019B3080002B00
:102FB0001CD109E0201C00F0FAF9201C212100F0AE
:102FC0009CF9C307F9D5DFE72621201C00F095F90D
:102FD0002721061C201C00F090F90002064328233C
:102FE000B6B2FF339E4201D901232B60201C212160
:102FF000FF2200F077F90020FEBDC046280A00201D
:10300000F0B587B0794C161C217120602621201C58
:1030100000F073F92721071C201C00F06EF928210D
:103020000502201C00F069F92F43BDB22921071CBD
:10303000201C00F062F900020743BFB2201C2A21C5
:10304000029700F05AF92B21071C201C00F055F9BB
:10305000000207432121201C00F04FF92121C2B2B8
:10306000201C00F03FF9029C6846BFB205824482F2
:10307000878200235A0004A9885A89215C4A4900A2
:10308000884207D9D15C00290CD10121D1549A0082
:10309000584906E0D15C012904D10021D154564998
:1030A0009A0056500133032BE4D189235B000020A2
:1030B0009D4200D997E0029C9C4200D993E09F4238
:1030C00000D990E04B494C4B0D68854201D100205E
:1030D00082E04C68002CFAD088680028F7D01E687F
:1030E000B446002EF3D05F68002FF0D09E68002E0B
:1030F000EDD0FC221206944509D8974207D8964293
:1031000005D8954203D8944201D890420ED93B4A43
:10311000944462461A60394ABF18B618AD18A4180C
:1031200080185F609E600D604C6088600C681D6850
:103130005E68281B420812194C689F68361B750888
:1031400002968E682D19BF1B7C08A4190397661B75
:10315000A54200D92E1BAF1ABC46AA4201D9571B63
:10316000BC46A71A0197A24201D9171B01970A284A
:1031700005D802980A2802D8039F0A2FA7D9AA4285
:1031800002D20120B44527D8A24203D8019F0120D2
:10319000B74221D8AA4202D20220B4451CD8A2428A
:1031A00003D9019F0220B74216D8AA4208D2AC42E6
:1031B00006D20198071C67447F080320BE420BD843
:1031C000A24284D2A54282D2019A171C67447F088A
:1031D000BE4200D87BE7042000221A600A605A60D1
:1031E0004A609A608A6007B0F0BDC046280A002095
:1031F000480A00203C0A0020300A0020FFFFFF1F81
:1032000073B5374C161C2060201C217100F01BF98F
:103210000F21051CBB22201C00F064F81021451969
:103220000B22201C00F05EF8ADB22D1801A901227E
:10323000201C00F04DF9002101AA201C00F04AF9E1
:1032400001218722201C00F0BCF8ADB22D1804210A
:103250001D22201C00F046F8ADB22D180C212422AE
:10326000201C00F0AEF8ADB22D1807210022201C62
:1032700000F0A7F8ADB22D1808210022201C00F0A4
:10328000A0F8ADB22D1809210022201C00F099F8F9
:10329000ADB22D181F212022201C00F092F8ADB2F3
:1032A0002D181221201C202200F08BF8ADB22D1811
:1032B000ADB2002E11D109210122201C00F012F81C
:1032C0000821061C4022201C00F00CF83618201C97
:1032D00000F072F8AD19ADB22D18ADB228B276BDBE
:1032E000280A002010B5131C02680C1C0179101C60
:1032F000221CFFF7DEFD00B210BD13B56C46031CA7
:1033000007340A1C00681979231CFFF7B9FD2078DF
:1033100016BD70B50E1C2021041CFFF7EEFF051C26
:10332000002806DB201C3021FFF7E7FF0128F7D13A
:1033300001E0031C0FE0002E06D0201C2021FFF727
:10334000DCFF2BB2984208D1201C1821321CFFF759
:10335000C9FF031E05D018B270BD0028E9DB051CAB
:10336000E0E7002E01D10023F5E7201C2021FFF724
:10337000C4FF2BB29842F6D10028F6DA2B1CEAE7FC
:1033800037B5141C02680D1C01790093101C231C16
:103390002A1CFFF7A2FD00B23EBD08B50A20FFF7C8
:1033A000A7FB08BD08B50021FFF7B3FF08BD08B5AE
:1033B0000721FFF7AEFF08BD08B50F21FFF7A9FFF2
:1033C00008BD73B5041C0E1C151C201C3021FFF712
:1033D00094FF012803D00028F7DA031C13E01F2212
:1033E000164001AB603E201C172102221D705E704A
:1033F000FFF7C6FF031E06D1201C2E21FFF77DFF1D
:10340000A842F9D1002318B276BD10B5041C201CC7
:103410002021FFF772FF002803D0201CFFF7C2FF16
:10342000F5E7201C0B21FFF774FF201C2021FFF77C
:1034300064FF0028F9D0201C2021FFF75EFF01283F
:10344000E5D1002010BD38B508210022041CFFF78B
:1034500049FF09210022051C201CFFF743FF2D18FE
:10346000201CFFF7D2FF08212D180022201CFFF797
:1034700039FF04212D180022201CFFF733FF0521FE
:103480002D180022201CFFF72DFF06212D180022E9
:10349000201CFFF727FF03212D180022201CFFF717
:1034A00021FF21212D18FF22201CFFF71BFF1821CF
:1034B00001222D18201CFFF715FF2D18FFF76DFFB7
:1034C000201C07211722FFF70DFF281800B238BD76
:1034D0000020704737B50424051C221C01A80549AB
:1034E00000F022FF281C1321221C01ABFFF748FF2C
:1034F0003EBDC046DB5F000070B588B003AB0E1C5C
:103500000421598001A90A7002250122188002AC09
:103510001A811D82181C04910694FFF7DDF900281A
:1035200002D00023336007E06378032293432278BC
:10353000281C12029B18336008B070BD70B50E1CB9
:10354000151C081C111CE5221C1CFFF7D5FF0228C6
:1035500002D00120404215E02A680B4B301C534337
:103560000A4A5B0B9B182B60211CE022FFF7C4FF6B
:103570000228EED12268064B00205343054A5B1314
:103580009B18236070BDC046093D000090E8FFFF16
:10359000CD550000FE48FFFF00B589B0042303A805
:1035A0006A464380FA2313700F23537000AB4360C5
:1035B0000223038101ABC360082303820180FFF76C
:1035C0008BF943425841C0B209B000BDF0B58BB091
:1035D000654C09A86549032200F0A6FE236C002073
:1035E0000190590705D462480121FDF723FD01220E
:1035F00001926048FDF758FDE26A4023171C032141
:1036000006905C481F40FDF721FE5B48FDF77CFCFF
:103610008021079049005848FDF7A4FCA36D0020C5
:1036200001240290234204D15348211CFDF702FDDE
:10363000029472B6514B1A68511C01D001321A60C3
:103640004F4C01262568354012D02268A368E068F7
:103650000493002303920590E5692360E361072347
:10366000A3618021C023474A4901B340D15003E000
:103670000595049503952E1C002309A88370FEF779
:1036800009F98022404B52011A603F4B1A685200E0
:103690001A600BD0616862689142FCD0384A526867
:1036A0001B68013BFDD863689342EED0364B1A6825
:1036B00052081A601B680922013A002A17D05B08D9
:1036C00015D031490868184308606068844660680E
:1036D0008445FCD02A48406809680139FDD86168F2
:1036E0008142E9D02849086898430860E4E7234A02
:1036F0001368002B04D0013B1360002B00D162B68D
:10370000002E11D007991C48FDF72CFC0120FEF774
:10371000B7F80499059A039BA1600020E26023603A
:10372000E561FEF7ADF802E0301CFEF79FF8029865
:10373000002803D010480021FDF77CFC06990329DE
:1037400002D00C48FDF782FD002F04D10120391C66
:103750003A1CFDF753FD019A002A03D004480021CA
:10376000FDF768FC0BB0F0BD00800C40DF5F00008F
:1037700000230400020006003004080004010020B9
:103780000000084000E100E014000020064B882201
:103790001202003250431A68C00AD20A504380090C
:1037A00001D00138FDD8704714000020064880473A
:1037B0000649074A074B9B1A03DD043BC858D05003
:1037C000FBDC054800470000C5380000F45F00003E
:1037D000000000208800002061010000FEE7FEE7F5
:1037E000FEE7FEE7FEE7FEE7FEE7FEE7FEE7FEE7B1
:1037F000FEE7FEE7FEE7FEE7FEE7FEE7FEE7FEE7A1
:10380000FEE7FEE7FEE7FEE7FEE7C0461D4AF023BF
:10381000D16A9B010B40802149018B422DD0802130
:1038200089018B4205D0802109018B4204D1164BBE
:1038300000E0164B186824E0D268E023DB00134058
:1038400080229200934212D007D8002B11D0802200
:10385000520093420FD10E4813E0C02292009342CF
:103860000ED08022D200934205D10A4809E00A48CE
:1038700007E00A4805E0002003E08020000200E0A5
:103880000748704700800C401C00002018000020F2
:1038900040B56400406F4001C0D8A700804F1200BF
:1038A000809FD50008B5FFF7B1FF044B5A680F237E
:1038B0001340D840024B186008BDC04600800C4041
:1038C000700A00207047802000027047FA208000B4
:1038D00070470000014B18687047C0461800002070
:1038E00002B4714649084900095C49008E4402BC93
:1038F0007047C046002934D00123002210B488420A
:103900002CD301242407A14204D2814202D209010E
:103910001B01F8E7E400A14204D2814202D249002F
:103920005B00F8E7884201D3401A1A434C08A042D2
:1039300002D3001B5C0822438C08A04202D3001B68
:103940009C082243CC08A04202D3001BDC0822437F
:10395000002803D01B0901D00909E3E7101C10BCA3
:103960007047002801D00020C04307B4024802A1DC
:103970004018029003BDC046D90000000029F0D0D5
:1039800003B5FFF7B9FF0EBC4243891A1847C0467A
:10399000002941D010B4041C4C40A446012300224D
:1039A000002900D54942002800D5404288422CD346
:1039B00001242407A14204D2814202D209011B0141
:1039C000F8E7E400A14204D2814202D249005B0040
:1039D000F8E7884201D3401A1A434C08A04202D3A8
:1039E000001B5C0822438C08A04202D3001B9C08E9
:1039F0002243CC08A04202D3001BDC08224300284B
:103A000003D01B0901D00909E3E7101C6446002C10
:103A100000D5404210BC7047002806D003DB0020D0
:103A2000C043400801E08020000607B4024802A11C
:103A30004018029003BDC046190000000029EBD0D9
:103A400003B5FFF7A7FF0EBC4243891A1847C046CB
:103A50007047C046002B11D1002A0FD1002900D198
:103A6000002802D00021C943081C07B4024802A163
:103A70004018029003BDC046D9FFFFFF03B468465B
:103A800001B5029800F044F8019B9E4602B00CBCC0
:103A90007047C0469C460304F0B51B0C17043F0C4E
:103AA000150C1E1C041C000C7E436B43474345430E
:103AB000FB18300C1818874202D980235B02ED18DE
:103AC000030CED1863465C434A433604360CA118D8
:103AD000000480194919F0BDF0B583B0161C1F1CF5
:103AE0000090019100F02EF8041C0D1C221C2B1CD0
:103AF000301C391CFFF7CEFF009A019B121A8B4134
:103B00000899201C0A604B60291C03B0F0BDC04618
:103B1000F0B583B0141C1D1C0090019100F0EAF96F
:103B2000221C2B1C061C0F1CFFF7B4FF009A019BE4
:103B3000121A8B410899301C0A604B60391C03B083
:103B4000F0BDC046F0B544465F4656464D46F0B41B
:103B50001C1C85B0002900DAD9E00F1C0021061CCE
:103B60008A46101C191C002C00DAC7E00196009050
:103B700089468046002950D1B84262D900F07AFBCC
:103B8000002809D020234546311C1B1A8540874058
:103B9000D940A8460F4386404246140C13041B0C20
:103BA000211C381C9B46FFF7A5FE5B464343051CC2
:103BB000211C381C9946FFF7E1FE330C080418431A
:103BC000814509D940446B1E804500D977E1814584
:103BD00000D874E1023D40444946411A8946081C18
:103BE000211CFFF787FE5A464243071C211C48460A
:103BF0009346FFF7C3FE36040904360C0E43B34563
:103C000007D946447B1EB04502D8023FB34500D8D1
:103C10001F1C2D042F43002403E0B94260D9002467
:103C200000275246381C211C002A03D03B1C0021CF
:103C30005842A14105B03CBC90469946A246AB46CD
:103C4000F0BD002804D101200021FFF753FE80467B
:103C5000404600F00FFB002860D1414644460B046B
:103C60003C1B1B0CA3460D0C00930124291C584639
:103C7000FFF740FE009F81464743291C5846FFF747
:103C80007DFE330C090419438F4208D94B46414449
:103C9000013B884502D88F4200D925E19946C91BCE
:103CA0008B46081C291CFFF725FE009B291C43435B
:103CB000071C58460093FFF761FE3604009D090477
:103CC000360C0E43B54207D946447B1EB04502D898
:103CD000023FB54200D81F1C49460B041F43A0E712
:103CE000081C00F0C7FA041E70D1B94503D3009C2C
:103CF000019DAC4293D80024012792E75246D2435B
:103D0000031C0C1C924600215842A1412EE70027BB
:103D100046428F41012149428A4622E720231B1A4D
:103D20004246351C82403C1CDD40DC4087402B1C59
:103D3000150C3B43291C8640201C00931704904619
:103D4000FFF7D8FD3F0C011C794381468B46201CB0
:103D5000291CFFF713FE009C0904230C19438B4513
:103D60000CD94B464144013B884500D9BAE08B450C
:103D700000D8B7E002225242914441445C460C1BF9
:103D8000201C291C0194FFF7B5FD391C4143041C7C
:103D90008B460198291CFFF7F1FD009A09041304D2
:103DA0001B0C19438B4509D94144631E884500D932
:103DB00094E08B4500D891E0023C41445B46CB1A2D
:103DC00049469B460B041C4300974FE7009D202368
:103DD0001B1A4A4600998240DD40154381403A1C37
:103DE000DA400091311C9046D9403A1C82400B1CAD
:103DF000134301932F0C2B041B0C391C40460293D8
:103E0000FFF778FD029A81464243391C40469346AB
:103E1000FFF7B4FD019A0904130C19438B450AD925
:103E20004B464919013B8D425AD88B4558D902233C
:103E30005B42994449195A468A1A101C391C03924C
:103E4000FFF758FD029B80464343391C03989B466D
:103E5000FFF794FD019A090413041B0C19438B45C9
:103E60000AD943464919013B8D4235D88B4533D990
:103E700002235B42984449195D464D1BAB464946B7
:103E8000009D0F04424617432A04120C3B042D0CDC
:103E90001B0C380C111C594342436B436843D31825
:103EA0000D0C5B198C469A4202D98022520280186E
:103EB0001D0C401983450CD303D00024B1E61D1C12
:103EC0008AE665462A041B04120C9B18A6409E42F3
:103ED000F3D2013F0024A4E69846CDE71C1C6DE711
:103EE0009946A8E7994649E7022252429144414443
:103EF000D5E6C046F0B55F4656464D464446F0B45A
:103F00000D1C85B0061C92469846029001910392C2
:103F10001F1C141C8346A946002B52D1AA426BD900
:103F2000101C00F0A7F900280AD020231B1A311C0E
:103F3000D94085400B1C2B43864084409946B346AC
:103F4000250C23041B0C291C48469846FFF7D2FC7D
:103F50004646071C4643291C4846FFF70FFD5A46B4
:103F60000904130C19438E4209D909197B1E8C428E
:103F700000D959E18E4200D856E1023F0919891B48
:103F80008946081C291CFFF7B5FC43464343061C21
:103F9000291C48469846FFF7F1FC5A4613040904C9
:103FA0001B0C1943884508D90919731E8C4200D986
:103FB00038E1023E884500D834E138043043002718
:103FC00012E0019A93420DD8181C00F053F9041E18
:103FD00066D1019B9F4200D221E1039F02998F424B
:103FE00000D81CE100270020391C05B03CBC9046DD
:103FF0009946A246AB46F0BD002A04D1012000211B
:10400000FFF778FC041C201C00F034F9002800D0D5
:10401000B6E023042D1B1B0CA946260C984601274D
:10402000311C4846FFF766FC41464143051C8A4661
:104030004846311CFFF7A2FC5A460804130C1843EB
:10404000824507D900196B1E844202D8824500D9E7
:104050000DE11D1C5346C31A181C311C9A46FFF76C
:1040600049FC41464143814688465046311CFFF792
:1040700085FC5A46130409041B0C194388450BD9C7
:104080004B460919013B8C4200D9CFE0884500D846
:10409000CCE002235B429944280449460843A3E745
:1040A00020231B1A424657468240DF4017435246A0
:1040B00082400192321CDA40291CD9408540131CF1
:1040C0002B4302933D0C3B041B0C8846081C291C07
:1040D0009A46FFF70FFC534643438146291C40464E
:1040E0009B46FFF74BFC029A0904130C19438B45BE
:1040F00006D94B46C919013B8F4200D8ABE099461F
:104100005A468A1A101C291C9346FFF7F3FB5346A4
:104110004343291C804658469A46FFF72FFC029AD3
:10412000090415042D0C29438A4506D94346C919AB
:10413000013B8F4200D886E098465746CF1BBA46CF
:104140004946019F0804424610433D042D0C0304D8
:104150003F0C1B0C020C291C594355437B437A43EB
:10416000EB180F0CDB198C469D4202D980277F0289
:10417000D2191D0C5219924562D359D0002733E74A
:1041800020231B1A311C2F1CD940DF4085400B1CFB
:1041900084402B4386400193B3462304260C1B0C1A
:1041A000381C311C9846FFF7A5FB42464243051CCC
:1041B000311C381C9146FFF7E1FB019F09043B0CC1
:1041C0001943894507D909196B1E8C424DD8894579
:1041D0004BD9023D09194A468A1A101C311C9246D5
:1041E000FFF788FB43464343071C311C5046994662
:1041F000FFF7C4FB019A090413041B0C19438945FA
:1042000007D909197B1E8C422DD889452BD9023F2D
:1042100009194B46CB1A2D0499462F4300E7002776
:104220000120E1E61E1CC8E61F1CA8E6994633E7FC
:1042300061460A041B04120C9B18A6409E429DD2A4
:1042400001380027D0E68A4500D875E702235B4293
:104250009844C91971E78B4500D850E702235B42A7
:104260009944C9194CE71F1CD3E71D1CB3E7023D55
:104270000019EFE61C2101231B04984201D3000C16
:1042800010391B0A984201D3000A08391B099842C9
:1042900001D30009043902A2105C40187047C046DF
:1042A00004030202010101010000000000000000FF
:1042B000084B10B5041C002B02D0002100E000BF09
:1042C000054B1868836A002B00D09847201C00F02B
:1042D00043F8C04600000000E45F000070B50E4BDC
:1042E0000E4D0024ED1AAD101E1CAC4204D0A300EC
:1042F000F35898470134F8E700F030F8084B094DBF
:104300000024ED1AAD101E1CAC4204D0A300F358DB
:1043100098470134F8E770BD80000020800000203D
:10432000800000208400002010B50023934203D0B9
:10433000CC5CC4540133F9E710BD031C82189342CE
:1043400002D019700133FAE770470023C25C0133D1
:10435000002AFBD1581E7047FEE7C046F8B5C0469C
:10436000F8BC08BC9E467047F8B5C046F8BC08BC0F
:104370009E467047FFFFFFFFFFFFFFFFFFFFFFFFAE
:10438000FFFFFFFFFFFFFFFFFFFFFFFFFFFFFFFF3D
:10439000FFFFFFFFFFFFFFFFFFFFFFFFFFFFFFFF2D
:1043A000FFFFFFFF01000000000000000000000010
:1043B000000000800100000000000000000000007C
:1043C000000000800100000000000000000000006C
:1043D000000000800100000000000000000000005C
:1043E000000000800100000000000000000000004C
:1043F000000000800100000000000000000000003C
:10440000000000800100000000000000000000002B
:10441000000000800100000000000000000000001B
:10442000000000800100000000000000000000000B
:1044300000000080010000000000000000000000FB
:1044400000000080010000000000000000000000EB
:1044500000000080010000000000000000000000DB
:1044600000000080010000000000000000000000CB
:1044700000000080010000000000000000000000BB
:1044800000000080010000000000000000000000AB
:10449000000000800100000000000000000000009B
:1044A000000000800100000000000000000000008B
:1044B000000000800100000000000000000000007B
:1044C00000000080018007000000000000000000E4
:1044D000000000800100000000000000000000005B
:1044E000000000800100000000000000000000004B
:1044F0000000008001C04400000000000000000037
:10450000000000800100000000000000000000002A
:10451000000000800100000000000000000000001A
:104520000000008001208400000000000000000066
:1045300000000080010000000000000000000000FA
:1045400000000080010000000000000000000000EA
:104550000000008001208400000000000000000036
:1045600000000080010000000000000000000000CA
:1045700000000080010000000000000000000000BA
:104580000000008001208400000000000000000006
:104590000700008001000000000000000000000093
:1045A000000000800100000000000000000000008A
:1045B0000000008001208400000000000000008056
:1045C0000D0000800100000000000000000000005D
:1045D000000000800100000000000000000000005A
:1045E000000000800140C40000000000000000C086
:1045F0001800008001000000000000000000000022
:104600000000008001000000000000000000000029
:104610000000008001C064000000000000000040B5
:1046200010000080010000000000000000000000F9
:1046300000000080010000000000000000000000F9
:104640000000008001001F0000000000000000408A
:1046500010000080010000000000000000000000C9
:1046600000000080010000000000000000000000C9
:104670000000008001000000000000000000004079
:104680001000008001000000000000000000000099
:104690000000008001000000000000000000000099
:1046A0000000008001200000000000000000004029
:1046B0001000008001000000000000000000000069
:1046C0000000008001000000000000000000000069
:1046D000000000800120000000000000000000FE3B
:1046E0001000008001000000000000000000000039
:1046F00000000080010000000000E0FFFFFF7F00DD
:1047000000000080012000000000000000000040C8
:104710001000008001000000000000000000000008
:104720000000008001000000000030000000C00018
:104730000000008001C000000000000000000040F8
:1047400010000080010000000000000000000000D8
:10475000000000800100000000001800000080013F
:104760000000008001E0FF000000000000000040A9
:1047700010000080010000000000000000000000A8
:10478000000000800100000000000807CE011C01AD
:104790000000008001000000000000000000004058
:1047A0001000008001080000000000000000000070
:1047B000000000800100000000000807CE011C017D
:1047C0000000008001000000000000000000004028
:1047D00010000080017800000000000000000000D0
:1047E0000000008001208000000008078E030E01F9
:1047F00000000080010000000000000000000040F8
:104800001000008001C00100000000000000000056
:10481000000000800160C000000008078E030E0148
:1048200000000080010000000000000000000040C7
:104830001000008001000F000000000000000000D8
:104840000000008001806000000008078E070F0153
:104850000000008001E0FF000000000000000040B8
:10486000100000800100380000000000000000007F
:104870000000008001001B00000008070E07070170
:104880000000008001006000000000000000004007
:10489000100000800100F80000000000000000008F
:1048A0000000008001000C00000008070E0707014F
:1048B00000000080010080000000000000000040B7
:1048C0001000008001008F030000000000000000C5
:1048D0000000008001001B00000008070E8E03018D
:1048E0000000008001008000000000000000004087
:1048F0001000008001C0030600000000000000005E
:104900000000008001C06000000008070E8E030157
:104910000000008001008000000000000000004056
:10492000100000800178000400000000000000007A
:10493000000000800160C000000008070EDE0301D7
:104940000000008001008000000000000000004026
:1049500010000080010800040000000000000000BA
:104960000000008001208000000008070EDC01012B
:104970000000008001004000000000000000004036
:10498000100000800108200000000000000000006E
:104990000000008001000000000008070EDC01019B
:1049A0000000008001E03F0000000000000000FE69
:1049B000100000800108200000000000000000003E
:1049C00000000080018007000000080F0FFC0101BB
:1049D0000000008001000000000000000000004016
:1049E000100000800108200000000000000000000E
:1049F0000F06008001C04400000008FE07F8000117
:104A000000000080010000000000000000000040E5
:104A1000100000800108300000000000000000804D
:104A20001902008001208400000008FE07F8000140
:104A30000000008001208000000000000000004015
:104A40001000008001FF1F00000000000000008037
:104A50001001008001208400000008F801700001AE
:104A600000000080012080000000000000000040E5
:104A7000100000800108000000000000000000801D
:104A800010010080012084000000080000000001E7
:104A900000000080012080000000000000000040B5
:104AA00010000080010800000000000000000080ED
:104AB0009000008001208400000008000000000138
:104AC000000000800120C000000000000000004045
:104AD00010000080010000000000000000000080C5
:104AE000D90000800140C4000000881379782201B9
:104AF0000000008001FC7F0000000000000000407A
:104B00001000008001000000000000000000000014
:104B10004F00008001C064000000083189082201B4
:104B200000000080012000000000000000000040A4
:104B3000101C0080C1F83F000000000000000000D1
:104B4000200F008001001F00000008510909140116
:104B50000000008001200000000000000000004074
:104B60001022008001000000000000000000000092
:104B7000B019008001000000000008510979080107
:104B80000000008001000000000000000000004064
:104B90001022008001000000000000000000000062
:104BA0009010008001000000000008910909140124
:104BB0000000008001000000000000000000004034
:104BC000101C008001000000000000000000000038
:104BD00088100080010000000000081189082201EF
:104BE000000000800180FF00000000000000004085
:104BF0001000008001000000000000000000000024
:104C000088100080010000000000881379782201DC
:104C10000000008001606200000000000000004011
:104C200010000080010000000000000000000000F3
:104C30008419008081FFFF000000080000000001CF
:104C40000000008001204200000000000000004041
:104C500010000080E1FF3F000000000000000000A5
:104C6000060F008001C06000000008000000000185
:104C700000000080012082000000000000000040D1
:104C8000100000800130180000000000000000004B
:104C900000000080016040000000080000000001EA
:104CA00000000080012082000000000000000040A1
:104CB000100000800118100000000000000000003B
:104CC00000000080012080000000080000000001BA
:104CD000000000800120840000000000000000406F
:104CE000100000800108200000000000000000000B
:104CF000000000800120800000000800000000018A
:104D0000000000800140C40000000000000000FE20
:104D100010000080010820000000000000000000DA
:104D20000000008001208000000008000000000159
:104D3000000000800100780000000000000000403A
:104D400010000080010820000000000000000000AA
:104D5000000000800140C0000000080000000001C9
:104D60000000008001000000000000000000004082
:104D70001000008001103000000000000000000062
:104D80000000008001C06000000008000000000179
:104D90000000008001200000000000000000004032
:104DA000100000800130180000000000000000002A
:104DB0000000008001001F0000000800000000014A
:104DC0000000008001200000000000000000004002
:104DD0001000008001C0070000000000000000007B
:104DE0000000008001000000000008000000000139
:104DF00000000080012000000000000000000040D2
:104E00001000008001000000000000000000000011
:104E10000000008001000000000008000000000108
:104E20000000008001C00000000000000000004001
:104E300010000080010000000000000000000000E1
:104E400000000080010000000000080000000001D8
:104E50000000008001E0FF000000000000000040B2
:104E600010000080010000000000000000000000B1
:104E7000000000800180FF00000008000000000129
:104E80000000008001000000000000000000004061
:104E900010000080C1F83F0000000000000000008A
:104EA0000000008001400000000008000000000138
:104EB0000000008001000000000000000000004031
:104EC0001000008001000000000000000000000051
:104ED0000000008001200000000008000000000128
:104EE0000000008001000000000000000000004001
:104EF0001000008001000000000000000000000021
:104F000000000080012000000000080000000001F7
:104F10000000008001800700000000000000004049
:104F200010000080010000000000000000000000F0
:104F300000000080012000000000080000000001C7
:104F40000000008001C0440000000000000000409C
:104F500010000080010000000000000000000000C0
:104F60000000008001400000000008000000000177
:104F700000000080012084000000000000000040CC
:104F80001000008001E03F00000000000000000071
:104F90000000008001C000000000080000000001C7
:104FA000000000800120840000000000000000409C
:104FB0001000008001100000000000000000000050
:104FC0000000008001E0FF00000008000000000178
:104FD000000000800120840000000000000000406C
:104FE0001000008001080000000000000000000028
:104FF0000000008001000000000008000000000127
:10500000000000800120840000000000000000403B
:1050100010000080010800000000000000000000F7
:1050200000000080010000000000080000000001F6
:10503000000000800140C4000000000000000040AB
:1050400010000080010800000000000000000000C7
:1050500000000080010000000000080000000001C6
:105060000000008001C0640000000000000000FE9D
:105070001000008001180000000000000000000087
:105080000000008001000000000008000000000196
:105090000000008001001F00000000000000004030
:1050A000100000800130000000000000000000003F
:1050B0000000008001FFFF00000008000000000168
:1050C000000000800100000000000000000000401F
:1050D0001000008001E03F00000000000000000020
:1050E0000000008001000000000008000000000136
:1050F00000000080010000000000000000000040EF
:1051000010000080011000000000000000000000FE
:105110000000008001000000000008000000000105
:1051200000000080010000000000000000000040BE
:10513000100000800108000000000000FC3F00009B
:1051400000000080010000000000080000000001D5
:105150000000008001801F000000000000000040EF
:105160001000008001080000000000C007E00300FC
:1051700000000080010000000000080000000001A5
:105180000000008001C0600000000000000000403E
:1051900010000080010800000000007800001E00E0
:1051A0000000008001000000000008000000000175
:1051B000000000800160400000000000000000408E
:1051C00010000080011800000000000E00007000B8
:1051D0000000008001000000000008000000000145
:1051E000000000800120800000000000000000405E
:1051F0001000008001300000000080030000C001AA
:105200000000008001000000000008000000000114
:10521000000000800120800000000000000000402D
:105220001000008001F83F000000E00000000007CF
:1052300000000080010000000000080000000001E4
:1052400000000080012080000000000000000040FD
:105250001000008001000000000030000000000C81
:1052600000000080010100000000080000000001B3
:10527000000000800140C00000000000000000406D
:10528000100000800100000000001C000000003839
:1052900000000080010F0000000008000000000175
:1052A000000000800180600000000000000000405D
:1052B00010000080010000000000060000000060F7
:1052C00000000080017800000000080000000001DC
:1052D0000000008001E0FF0F00000000000000401F
:1052E000100000800100000000000300000000C06A
:1052F0000000008001E00100000008000000000143
:1053000000000080010000000000000000000040DC
:105310001000008001F83F000080010000000080C4
:105320000100008001000F000000080000000001E3
:1053300000000080010000000000000000000040AC
:10534000100000800100180000C0000000000000F4
:105350000300008001007800000008000000000148
:10536000000000800100000000000000000000407C
:10537000100000800100200000600000000000001C
:10538000060000800100C0000000080000000001CD
:10539000000000800100000000000000000000404C
:1053A000100000800100200000200000000000002C
:1053B000040000800100F8000000180000008001D7
:1053C000000000800180FF0000000000000000FEDF
:1053D00010000080010020000030000000000000EC
:1053E0000C00008001001F00000030000000C00021
:1053F00000000080014000000000000000000040AC
:1054000010000080010020000018000000000000D3
:105410001800008001E003000000E0FFFFFF7F00B4
:10542000000000800120000000000000000000409B
:1054300010000080010010000008000000000000C3
:105440001000008001780000000000000000000053
:10545000000000800120000000000000000000406B
:105460001000008001F80F00000C00000000000098
:1054700030000080010F000000000000000000006C
:10548000000000800120000000000000000000700B
:105490007000008001000000000600000000000015
:1054A000600000800101000000000000000000001A
:1054B0000000008001600000000000000000000CFF
:1054C00087010080010000000002000000000000D1
:1054D000400000800100000000000000000000000B
:1054E0000000008001C00000000000000000000378
:1054F000070600800100000000020000000000001C
:1055000040000080010000000000000000000000DA
:10551000000000800180FF0000000000000080F11A
:105520007F0C00800100000000030000000000006C
:10553000C00000800100000000000000000000002A
:105540000000008001400000000000000000C0F8E2
:10555000FF180080C1FF3F000001000000000000B4
:105560008000008001FF1F0000000000000000001C
:10557000000000800120000000000000000060FE2C
:10558000FF330080012000008001000000000000C7
:1055900080010080010060000000000000000000A9
:1055A000000000800120000000000000000020FF3B
:1055B000FF270080012000008000000000000000A4
:1055C0000001008001004000000000000000000019
:1055D000000000800120000000000000000010FF1B
:1055E000FF47008001200000800000000000000054
:1055F00000010080010080000000000000000000A9
:10560000000000800160000000000000000090FF2A
:10561000FF4F008001200080830000000000000098
:105620000031E78001008000000000000000000061
:105630000000008001C00000000000000000C8FF62
:10564000FF9F008001200040C40000000000000017
:1056500000AB188101008000000000000000000085
:105660000000008001E0FF00000000000000C8FF13
:10567000FF9F00800120004044000000E007000080
:1056800000A218810100800000000000000000005E
:105690000000008001000000000000000000C8FFC2
:1056A000FF9F00800120004044000000F00F000038
:1056B00000A218810100400000000000000000006E
:1056C0000000008001000000000000000000C8FF92
:1056D000FF9F00800120004044000000F81F0000F0
:1056E00000A218810100600000000000000000001E
:1056F0000000008001000000000000000000E4FF46
:10570000FF3F01800120004044000000F81F00001E
:1057100000A2188101FF1F0000000000000000002F
:105720000000008001800700000000000000E4FF8E
:10573000FF3F0180C1FF3F80C3FFFFFFFFFFFFFF6F
:10574000FF23E780010000000000000000000000CF
:105750000000008001C04400000000000000E4FFE1
:10576000FF3F018001000000000000000000000079
:1057700000000080010000000000000000000000A8
:105780000000008001208400000000000000C8FF2D
:10579000FF9F0080010000000000000000000000EA
:1057A0000000008001000000000000000000000078
:1057B0000000008001208400000000000000C8FFFD
:1057C000FF9F0080010000000000000000000000BA
:1057D0000000008001000000000000000000000048
:1057E0000000008001208400000000000000C8FFCD
:1057F000FF9F00800100000000000000000000008A
:105800000000008001000000000000000000000017
:105810000000008001208400000000000000C8FF9C
:10582000FF9F008001000000000000000000000059
:1058300000000080010000000000000000000000E7
:10584000000000800140C40000000000000090FF44
:10585000FF4F008001000000000000000000000079
:1058600000000080010000000000000000000000B7
:105870000000008001C0640000000000000010FF74
:10588000FF47008001000000000000000000000051
:105890000000008001000000000000000000000087
:1058A0000000008001011F0000000000000020FF38
:1058B000FF27008001000000000000000000000041
:1058C0000000008001000000000000000000000057
:1058D000000000800101000000000000000060FEE8
:1058E000FF33008001000000000000000000000005
:1058F0000000008001000000000000000000000027
:105900000000008001010000000000000000C0F85D
:10591000FF180080010000000000000000000000EF
:1059200000000080010000000000000000000000F6
:10593000000000800101000000000000000080F174
:105940007F0C00800100000000000000000000004B
:1059500000000080010000000000000000000000C6
:1059600000000080010100000000000000000003B2
:105970000706008001000000000000000000000099
:105980000000008001000000000000000000000096
:105990000000008001FFFF00000000000000000C7C
:1059A00080010080010000000000000000000000F5
:1059B0000000008001000000000000000000000066
:1059C000000000800101000000000000000000F065
:1059D00078000080010000000000000000000000CE
:1059E0000000008001000000000000000000000036
:1059F0000000008001010000000000000000000025
:105A0000070000800100000000000000000000000E
:105A10000000008001000000000000000000000005
:105A200000000080010100000000000000000000F4
:105A300000000080010000000000000000000000E5
:105A400000000080010000000000000000000000D5
:105A500000000080010100000000000000000000C4
:105A600000000080010000000000000000000000B5
:105A700000000080010000000000000000000000A5
:105A80000000008001000000000000000000000095
:105A90000000008001000000000000000000000085
:105AA0000000008001000000000000000000000075
:105AB0000000008001000000000000000000000065
:105AC0000000008001000000000000000000000055
:105AD0000000008001000000000000000000000045
